{"contracts/staking.sol":{"Staking":{"abi":[{"inputs":[{"internalType":"address","name":"_stakingToken","type":"address"},{"internalType":"address","name":"_rewardsWallet","type":"address"}],"stateMutability":"nonpayable","type":"constructor"},{"inputs":[{"internalType":"address","name":"owner","type":"address"}],"name":"OwnableInvalidOwner","type":"error"},{"inputs":[{"internalType":"address","name":"account","type":"address"}],"name":"OwnableUnauthorizedAccount","type":"error"},{"anonymous":false,"inputs":[{"indexed":true,"internalType":"address","name":"previousOwner","type":"address"},{"indexed":true,"internalType":"address","name":"newOwner","type":"address"}],"name":"OwnershipTransferred","type":"event"},{"anonymous":false,"inputs":[{"indexed":true,"internalType":"address","name":"user","type":"address"},{"indexed":false,"internalType":"uint256","name":"amount","type":"uint256"}],"name":"RewardsClaimed","type":"event"},{"anonymous":false,"inputs":[{"indexed":true,"internalType":"address","name":"user","type":"address"},{"indexed":false,"internalType":"uint256","name":"amount","type":"uint256"}],"name":"Staked","type":"event"},{"anonymous":false,"inputs":[{"indexed":true,"internalType":"address","name":"user","type":"address"},{"indexed":false,"internalType":"uint256","name":"amount","type":"uint256"}],"name":"Unstaked","type":"event"},{"inputs":[],"name":"APR","outputs":[{"internalType":"uint256","name":"","type":"uint256"}],"stateMutability":"view","type":"function"},{"inputs":[],"name":"claimRewards","outputs":[],"stateMutability":"nonpayable","type":"function"},{"inputs":[],"name":"emergencyWithdraw","outputs":[],"stateMutability":"nonpayable","type":"function"},{"inputs":[{"internalType":"uint256","name":"amount","type":"uint256"}],"name":"fundRewards","outputs":[],"stateMutability":"nonpayable","type":"function"},{"inputs":[{"internalType":"address","name":"user","type":"address"}],"name":"getStakedAmount","outputs":[{"internalType":"uint256","name":"","type":"uint256"}],"stateMutability":"view","type":"function"},{"inputs":[],"name":"owner","outputs":[{"internalType":"address","name":"","type":"address"}],"stateMutability":"view","type":"function"},{"inputs":[{"internalType":"address","name":"user","type":"address"}],"name":"pendingRewards","outputs":[{"internalType":"uint256","name":"","type":"uint256"}],"stateMutability":"view","type":"function"},{"inputs":[],"name":"renounceOwnership","outputs":[],"stateMutability":"nonpayable","type":"function"},{"inputs":[],"name":"rewardRate","outputs":[{"internalType":"uint256","name":"","type":"uint256"}],"stateMutability":"view","type":"function"},{"inputs":[],"name":"rewardsWallet","outputs":[{"internalType":"address","name":"","type":"address"}],"stateMutability":"view","type":"function"},{"inputs":[{"internalType":"uint256","name":"newAPR","type":"uint256"}],"name":"setAPR","outputs":[],"stateMutability":"nonpayable","type":"function"},{"inputs":[{"internalType":"uint256","name":"amount","type":"uint256"}],"name":"stake","outputs":[],"stateMutability":"nonpayable","type":"function"},{"inputs":[{"internalType":"address","name":"","type":"address"}],"name":"stakers","outputs":[{"internalType":"uint256","name":"amount","type":"uint256"},{"internalType":"uint256","name":"rewardDebt","type":"uint256"},{"internalType":"uint256","name":"lastUpdated","type":"uint256"}],"stateMutability":"view","type":"function"},{"inputs":[],"name":"stakingToken","outputs":[{"internalType":"contract IERC20","name":"","type":"address"}],"stateMutability":"view","type":"function"},{"inputs":[{"internalType":"address","name":"user","type":"address"}],"name":"totalEarnedRewards","outputs":[{"internalType":"uint256","name":"","type":"uint256"}],"stateMutability":"view","type":"function"},{"inputs":[],"name":"totalStaked","outputs":[{"internalType":"uint256","name":"","type":"uint256"}],"stateMutability":"view","type":"function"},{"inputs":[{"internalType":"address","name":"newOwner","type":"address"}],"name":"transferOwnership","outputs":[],"stateMutability":"nonpayable","type":"function"},{"inputs":[{"internalType":"uint256","name":"amount","type":"uint256"}],"name":"unstake","outputs":[],"stateMutability":"nonpayable","type":"function"}],"evm":{"bytecode":{"linkReferences":{},"object":"60a0604052606460015560586003553480156200001b57600080fd5b5060405162001aa838038062001aa8833981810160405281019062000041919062000274565b33600073ffffffffffffffffffffffffffffffffffffffff168173ffffffffffffffffffffffffffffffffffffffff1603620000b75760006040517f1e4fbdf7000000000000000000000000000000000000000000000000000000008152600401620000ae9190620002cc565b60405180910390fd5b620000c8816200014660201b60201c565b508173ffffffffffffffffffffffffffffffffffffffff1660808173ffffffffffffffffffffffffffffffffffffffff168152505080600460006101000a81548173ffffffffffffffffffffffffffffffffffffffff021916908373ffffffffffffffffffffffffffffffffffffffff1602179055505050620002e9565b60008060009054906101000a900473ffffffffffffffffffffffffffffffffffffffff169050816000806101000a81548173ffffffffffffffffffffffffffffffffffffffff021916908373ffffffffffffffffffffffffffffffffffffffff1602179055508173ffffffffffffffffffffffffffffffffffffffff168173ffffffffffffffffffffffffffffffffffffffff167f8be0079c531659141344cd1fd0a4f28419497f9722a3daafe3b4186f6b6457e060405160405180910390a35050565b600080fd5b600073ffffffffffffffffffffffffffffffffffffffff82169050919050565b60006200023c826200020f565b9050919050565b6200024e816200022f565b81146200025a57600080fd5b50565b6000815190506200026e8162000243565b92915050565b600080604083850312156200028e576200028d6200020a565b5b60006200029e858286016200025d565b9250506020620002b1858286016200025d565b9150509250929050565b620002c6816200022f565b82525050565b6000602082019050620002e36000830184620002bb565b92915050565b6080516117796200032f600039600081816104230152818161067701528181610812015281816108f3015281816109d001528181610b160152610d8101526117796000f3fe608060405234801561001057600080fd5b50600436106101165760003560e01c8063854303cf116100a25780639c1b49cb116100715780639c1b49cb146102ab578063a694fc3a146102db578063bd30558e146102f7578063db2e21bc14610315578063f2fde38b1461031f57610116565b8063854303cf146102235780638da5cb5b1461023f5780639168ae721461025d57806393707a191461028f57610116565b80635b35f9c9116100e95780635b35f9c9146101a1578063715018a6146101bf57806372f702f3146101c95780637b0a47ee146101e7578063817b1cd21461020557610116565b80632e17de781461011b57806331d7a26214610137578063372500ab146101675780634da6a55614610171575b600080fd5b61013560048036038101906101309190611084565b61033b565b005b610151600480360381019061014c919061110f565b610513565b60405161015e919061114b565b60405180910390f35b61016f6105cf565b005b61018b6004803603810190610186919061110f565b61078a565b604051610198919061114b565b60405180910390f35b6101a96107d6565b6040516101b69190611175565b60405180910390f35b6101c76107fc565b005b6101d1610810565b6040516101de91906111ef565b60405180910390f35b6101ef610834565b6040516101fc919061114b565b60405180910390f35b61020d61083a565b60405161021a919061114b565b60405180910390f35b61023d60048036038101906102389190611084565b610840565b005b610247610895565b6040516102549190611175565b60405180910390f35b6102776004803603810190610272919061110f565b6108be565b6040516102869392919061120a565b60405180910390f35b6102a960048036038101906102a49190611084565b6108e8565b005b6102c560048036038101906102c0919061110f565b610a72565b6040516102d2919061114b565b60405180910390f35b6102f560048036038101906102f09190611084565b610ad1565b005b6102ff610cb0565b60405161030c919061114b565b60405180910390f35b61031d610cb6565b005b6103396004803603810190610334919061110f565b610e70565b005b6000600560003373ffffffffffffffffffffffffffffffffffffffff1673ffffffffffffffffffffffffffffffffffffffff168152602001908152602001600020905081816000015410156103c5576040517f08c379a00000000000000000000000000000000000000000000000000000000081526004016103bc9061129e565b60405180910390fd5b60006103d033610513565b905060008111156103e4576103e36105cf565b5b828260000160008282546103f891906112ed565b92505081905550428260020181905550826002600082825461041a91906112ed565b925050819055507f000000000000000000000000000000000000000000000000000000000000000073ffffffffffffffffffffffffffffffffffffffff1663a9059cbb33856040518363ffffffff1660e01b815260040161047c929190611321565b6020604051808303816000875af115801561049b573d6000803e3d6000fd5b505050506040513d601f19601f820116820180604052508101906104bf9190611382565b503373ffffffffffffffffffffffffffffffffffffffff167f0f5bb82176feb1b5e747e28471aa92156a04d9f3ab9f45f28e2d704232b93f7584604051610506919061114b565b60405180910390a2505050565b600080600560008473ffffffffffffffffffffffffffffffffffffffff1673ffffffffffffffffffffffffffffffffffffffff1681526020019081526020016000209050600081600001540361056d5760009150506105ca565b600081600201544261057f91906112ed565b905060006064600354846000015461059791906113af565b6105a19190611420565b905060006301e1338083836105b691906113af565b6105c09190611420565b9050809450505050505b919050565b6000600560003373ffffffffffffffffffffffffffffffffffffffff1673ffffffffffffffffffffffffffffffffffffffff1681526020019081526020016000209050600061061d33610513565b905060008111610662576040517f08c379a00000000000000000000000000000000000000000000000000000000081526004016106599061149d565b60405180910390fd5b600082600101819055504282600201819055507f000000000000000000000000000000000000000000000000000000000000000073ffffffffffffffffffffffffffffffffffffffff166323b872dd600460009054906101000a900473ffffffffffffffffffffffffffffffffffffffff1633846040518463ffffffff1660e01b81526004016106f4939291906114bd565b6020604051808303816000875af1158015610713573d6000803e3d6000fd5b505050506040513d601f19601f820116820180604052508101906107379190611382565b503373ffffffffffffffffffffffffffffffffffffffff167ffc30cddea38e2bf4d6ea7d3f9ed3b6ad7f176419f4963bd81318067a4aee73fe8260405161077e919061114b565b60405180910390a25050565b6000600560008373ffffffffffffffffffffffffffffffffffffffff1673ffffffffffffffffffffffffffffffffffffffff168152602001908152602001600020600001549050919050565b600460009054906101000a900473ffffffffffffffffffffffffffffffffffffffff1681565b610804610ef6565b61080e6000610f7d565b565b7f000000000000000000000000000000000000000000000000000000000000000081565b60015481565b60025481565b610848610ef6565b6000811161088b576040517f08c379a000000000000000000000000000000000000000000000000000000000815260040161088290611540565b60405180910390fd5b8060038190555050565b60008060009054906101000a900473ffffffffffffffffffffffffffffffffffffffff16905090565b60056020528060005260406000206000915090508060000154908060010154908060020154905083565b6108f0610ef6565b807f000000000000000000000000000000000000000000000000000000000000000073ffffffffffffffffffffffffffffffffffffffff1663dd62ed3e33306040518363ffffffff1660e01b815260040161094c929190611560565b602060405180830381865afa158015610969573d6000803e3d6000fd5b505050506040513d601f19601f8201168201806040525081019061098d919061159e565b10156109ce576040517f08c379a00000000000000000000000000000000000000000000000000000000081526004016109c590611617565b60405180910390fd5b7f000000000000000000000000000000000000000000000000000000000000000073ffffffffffffffffffffffffffffffffffffffff166323b872dd3330846040518463ffffffff1660e01b8152600401610a2b939291906114bd565b6020604051808303816000875af1158015610a4a573d6000803e3d6000fd5b505050506040513d601f19601f82011682018060405250810190610a6e9190611382565b5050565b6000610a7d82610513565b600560008473ffffffffffffffffffffffffffffffffffffffff1673ffffffffffffffffffffffffffffffffffffffff16815260200190815260200160002060010154610aca9190611637565b9050919050565b60008111610b14576040517f08c379a0000000000000000000000000000000000000000000000000000000008152600401610b0b906116b7565b60405180910390fd5b7f000000000000000000000000000000000000000000000000000000000000000073ffffffffffffffffffffffffffffffffffffffff166323b872dd3330846040518463ffffffff1660e01b8152600401610b71939291906114bd565b6020604051808303816000875af1158015610b90573d6000803e3d6000fd5b505050506040513d601f19601f82011682018060405250810190610bb49190611382565b506000600560003373ffffffffffffffffffffffffffffffffffffffff1673ffffffffffffffffffffffffffffffffffffffff16815260200190815260200160002090506000610c0333610513565b905080826001016000828254610c199190611637565b9250508190555082826000016000828254610c349190611637565b925050819055504282600201819055508260026000828254610c569190611637565b925050819055503373ffffffffffffffffffffffffffffffffffffffff167f9e71bc8eea02a63969f509818f2dafb9254532904319f9dbda79b67bd34a5f3d84604051610ca3919061114b565b60405180910390a2505050565b60035481565b6000600560003373ffffffffffffffffffffffffffffffffffffffff1673ffffffffffffffffffffffffffffffffffffffff16815260200190815260200160002090506000816000015411610d40576040517f08c379a0000000000000000000000000000000000000000000000000000000008152600401610d3790611723565b60405180910390fd5b60008160000154905060008260000181905550600082600101819055504282600201819055508060026000828254610d7891906112ed565b925050819055507f000000000000000000000000000000000000000000000000000000000000000073ffffffffffffffffffffffffffffffffffffffff1663a9059cbb33836040518363ffffffff1660e01b8152600401610dda929190611321565b6020604051808303816000875af1158015610df9573d6000803e3d6000fd5b505050506040513d601f19601f82011682018060405250810190610e1d9190611382565b503373ffffffffffffffffffffffffffffffffffffffff167f0f5bb82176feb1b5e747e28471aa92156a04d9f3ab9f45f28e2d704232b93f7582604051610e64919061114b565b60405180910390a25050565b610e78610ef6565b600073ffffffffffffffffffffffffffffffffffffffff168173ffffffffffffffffffffffffffffffffffffffff1603610eea5760006040517f1e4fbdf7000000000000000000000000000000000000000000000000000000008152600401610ee19190611175565b60405180910390fd5b610ef381610f7d565b50565b610efe611041565b73ffffffffffffffffffffffffffffffffffffffff16610f1c610895565b73ffffffffffffffffffffffffffffffffffffffff1614610f7b57610f3f611041565b6040517f118cdaa7000000000000000000000000000000000000000000000000000000008152600401610f729190611175565b60405180910390fd5b565b60008060009054906101000a900473ffffffffffffffffffffffffffffffffffffffff169050816000806101000a81548173ffffffffffffffffffffffffffffffffffffffff021916908373ffffffffffffffffffffffffffffffffffffffff1602179055508173ffffffffffffffffffffffffffffffffffffffff168173ffffffffffffffffffffffffffffffffffffffff167f8be0079c531659141344cd1fd0a4f28419497f9722a3daafe3b4186f6b6457e060405160405180910390a35050565b600033905090565b600080fd5b6000819050919050565b6110618161104e565b811461106c57600080fd5b50565b60008135905061107e81611058565b92915050565b60006020828403121561109a57611099611049565b5b60006110a88482850161106f565b91505092915050565b600073ffffffffffffffffffffffffffffffffffffffff82169050919050565b60006110dc826110b1565b9050919050565b6110ec816110d1565b81146110f757600080fd5b50565b600081359050611109816110e3565b92915050565b60006020828403121561112557611124611049565b5b6000611133848285016110fa565b91505092915050565b6111458161104e565b82525050565b6000602082019050611160600083018461113c565b92915050565b61116f816110d1565b82525050565b600060208201905061118a6000830184611166565b92915050565b6000819050919050565b60006111b56111b06111ab846110b1565b611190565b6110b1565b9050919050565b60006111c78261119a565b9050919050565b60006111d9826111bc565b9050919050565b6111e9816111ce565b82525050565b600060208201905061120460008301846111e0565b92915050565b600060608201905061121f600083018661113c565b61122c602083018561113c565b611239604083018461113c565b949350505050565b600082825260208201905092915050565b7f496e73756666696369656e742062616c616e6365000000000000000000000000600082015250565b6000611288601483611241565b915061129382611252565b602082019050919050565b600060208201905081810360008301526112b78161127b565b9050919050565b7f4e487b7100000000000000000000000000000000000000000000000000000000600052601160045260246000fd5b60006112f88261104e565b91506113038361104e565b925082820390508181111561131b5761131a6112be565b5b92915050565b60006040820190506113366000830185611166565b611343602083018461113c565b9392505050565b60008115159050919050565b61135f8161134a565b811461136a57600080fd5b50565b60008151905061137c81611356565b92915050565b60006020828403121561139857611397611049565b5b60006113a68482850161136d565b91505092915050565b60006113ba8261104e565b91506113c58361104e565b92508282026113d38161104e565b915082820484148315176113ea576113e96112be565b5b5092915050565b7f4e487b7100000000000000000000000000000000000000000000000000000000600052601260045260246000fd5b600061142b8261104e565b91506114368361104e565b925082611446576114456113f1565b5b828204905092915050565b7f4e6f207265776172647320746f20636c61696d00000000000000000000000000600082015250565b6000611487601383611241565b915061149282611451565b602082019050919050565b600060208201905081810360008301526114b68161147a565b9050919050565b60006060820190506114d26000830186611166565b6114df6020830185611166565b6114ec604083018461113c565b949350505050565b7f415052206d75737420626520706f736974697665000000000000000000000000600082015250565b600061152a601483611241565b9150611535826114f4565b602082019050919050565b600060208201905081810360008301526115598161151d565b9050919050565b60006040820190506115756000830185611166565b6115826020830184611166565b9392505050565b60008151905061159881611058565b92915050565b6000602082840312156115b4576115b3611049565b5b60006115c284828501611589565b91505092915050565b7f496e73756666696369656e7420616c6c6f77616e636500000000000000000000600082015250565b6000611601601683611241565b915061160c826115cb565b602082019050919050565b60006020820190508181036000830152611630816115f4565b9050919050565b60006116428261104e565b915061164d8361104e565b9250828201905080821115611665576116646112be565b5b92915050565b7f43616e6e6f74207374616b652030000000000000000000000000000000000000600082015250565b60006116a1600e83611241565b91506116ac8261166b565b602082019050919050565b600060208201905081810360008301526116d081611694565b9050919050565b7f4e6f7468696e6720746f20776974686472617700000000000000000000000000600082015250565b600061170d601383611241565b9150611718826116d7565b602082019050919050565b6000602082019050818103600083015261173c81611700565b905091905056fea26469706673582212206f0b097d0ca6fe4ec8b305c713e9dee54a302b44e84186d691e60a2b44a7620264736f6c63430008140033","opcodes":"PUSH1 0xA0 PUSH1 0x40 MSTORE PUSH1 0x64 PUSH1 0x1 SSTORE PUSH1 0x58 PUSH1 0x3 SSTORE CALLVALUE DUP1 ISZERO PUSH3 0x1B JUMPI PUSH1 0x0 DUP1 REVERT JUMPDEST POP PUSH1 0x40 MLOAD PUSH3 0x1AA8 CODESIZE SUB DUP1 PUSH3 0x1AA8 DUP4 CODECOPY DUP2 DUP2 ADD PUSH1 0x40 MSTORE DUP2 ADD SWAP1 PUSH3 0x41 SWAP2 SWAP1 PUSH3 0x274 JUMP JUMPDEST CALLER PUSH1 0x0 PUSH20 0xFFFFFFFFFFFFFFFFFFFFFFFFFFFFFFFFFFFFFFFF AND DUP2 PUSH20 0xFFFFFFFFFFFFFFFFFFFFFFFFFFFFFFFFFFFFFFFF AND SUB PUSH3 0xB7 JUMPI PUSH1 0x0 PUSH1 0x40 MLOAD PUSH32 0x1E4FBDF700000000000000000000000000000000000000000000000000000000 DUP2 MSTORE PUSH1 0x4 ADD PUSH3 0xAE SWAP2 SWAP1 PUSH3 0x2CC JUMP JUMPDEST PUSH1 0x40 MLOAD DUP1 SWAP2 SUB SWAP1 REVERT JUMPDEST PUSH3 0xC8 DUP2 PUSH3 0x146 PUSH1 0x20 SHL PUSH1 0x20 SHR JUMP JUMPDEST POP DUP2 PUSH20 0xFFFFFFFFFFFFFFFFFFFFFFFFFFFFFFFFFFFFFFFF AND PUSH1 0x80 DUP2 PUSH20 0xFFFFFFFFFFFFFFFFFFFFFFFFFFFFFFFFFFFFFFFF AND DUP2 MSTORE POP POP DUP1 PUSH1 0x4 PUSH1 0x0 PUSH2 0x100 EXP DUP2 SLOAD DUP2 PUSH20 0xFFFFFFFFFFFFFFFFFFFFFFFFFFFFFFFFFFFFFFFF MUL NOT AND SWAP1 DUP4 PUSH20 0xFFFFFFFFFFFFFFFFFFFFFFFFFFFFFFFFFFFFFFFF AND MUL OR SWAP1 SSTORE POP POP POP PUSH3 0x2E9 JUMP JUMPDEST PUSH1 0x0 DUP1 PUSH1 0x0 SWAP1 SLOAD SWAP1 PUSH2 0x100 EXP SWAP1 DIV PUSH20 0xFFFFFFFFFFFFFFFFFFFFFFFFFFFFFFFFFFFFFFFF AND SWAP1 POP DUP2 PUSH1 0x0 DUP1 PUSH2 0x100 EXP DUP2 SLOAD DUP2 PUSH20 0xFFFFFFFFFFFFFFFFFFFFFFFFFFFFFFFFFFFFFFFF MUL NOT AND SWAP1 DUP4 PUSH20 0xFFFFFFFFFFFFFFFFFFFFFFFFFFFFFFFFFFFFFFFF AND MUL OR SWAP1 SSTORE POP DUP2 PUSH20 0xFFFFFFFFFFFFFFFFFFFFFFFFFFFFFFFFFFFFFFFF AND DUP2 PUSH20 0xFFFFFFFFFFFFFFFFFFFFFFFFFFFFFFFFFFFFFFFF AND PUSH32 0x8BE0079C531659141344CD1FD0A4F28419497F9722A3DAAFE3B4186F6B6457E0 PUSH1 0x40 MLOAD PUSH1 0x40 MLOAD DUP1 SWAP2 SUB SWAP1 LOG3 POP POP JUMP JUMPDEST PUSH1 0x0 DUP1 REVERT JUMPDEST PUSH1 0x0 PUSH20 0xFFFFFFFFFFFFFFFFFFFFFFFFFFFFFFFFFFFFFFFF DUP3 AND SWAP1 POP SWAP2 SWAP1 POP JUMP JUMPDEST PUSH1 0x0 PUSH3 0x23C DUP3 PUSH3 0x20F JUMP JUMPDEST SWAP1 POP SWAP2 SWAP1 POP JUMP JUMPDEST PUSH3 0x24E DUP2 PUSH3 0x22F JUMP JUMPDEST DUP2 EQ PUSH3 0x25A JUMPI PUSH1 0x0 DUP1 REVERT JUMPDEST POP JUMP JUMPDEST PUSH1 0x0 DUP2 MLOAD SWAP1 POP PUSH3 0x26E DUP2 PUSH3 0x243 JUMP JUMPDEST SWAP3 SWAP2 POP POP JUMP JUMPDEST PUSH1 0x0 DUP1 PUSH1 0x40 DUP4 DUP6 SUB SLT ISZERO PUSH3 0x28E JUMPI PUSH3 0x28D PUSH3 0x20A JUMP JUMPDEST JUMPDEST PUSH1 0x0 PUSH3 0x29E DUP6 DUP3 DUP7 ADD PUSH3 0x25D JUMP JUMPDEST SWAP3 POP POP PUSH1 0x20 PUSH3 0x2B1 DUP6 DUP3 DUP7 ADD PUSH3 0x25D JUMP JUMPDEST SWAP2 POP POP SWAP3 POP SWAP3 SWAP1 POP JUMP JUMPDEST PUSH3 0x2C6 DUP2 PUSH3 0x22F JUMP JUMPDEST DUP3 MSTORE POP POP JUMP JUMPDEST PUSH1 0x0 PUSH1 0x20 DUP3 ADD SWAP1 POP PUSH3 0x2E3 PUSH1 0x0 DUP4 ADD DUP5 PUSH3 0x2BB JUMP JUMPDEST SWAP3 SWAP2 POP POP JUMP JUMPDEST PUSH1 0x80 MLOAD PUSH2 0x1779 PUSH3 0x32F PUSH1 0x0 CODECOPY PUSH1 0x0 DUP2 DUP2 PUSH2 0x423 ADD MSTORE DUP2 DUP2 PUSH2 0x677 ADD MSTORE DUP2 DUP2 PUSH2 0x812 ADD MSTORE DUP2 DUP2 PUSH2 0x8F3 ADD MSTORE DUP2 DUP2 PUSH2 0x9D0 ADD MSTORE DUP2 DUP2 PUSH2 0xB16 ADD MSTORE PUSH2 0xD81 ADD MSTORE PUSH2 0x1779 PUSH1 0x0 RETURN INVALID PUSH1 0x80 PUSH1 0x40 MSTORE CALLVALUE DUP1 ISZERO PUSH2 0x10 JUMPI PUSH1 0x0 DUP1 REVERT JUMPDEST POP PUSH1 0x4 CALLDATASIZE LT PUSH2 0x116 JUMPI PUSH1 0x0 CALLDATALOAD PUSH1 0xE0 SHR DUP1 PUSH4 0x854303CF GT PUSH2 0xA2 JUMPI DUP1 PUSH4 0x9C1B49CB GT PUSH2 0x71 JUMPI DUP1 PUSH4 0x9C1B49CB EQ PUSH2 0x2AB JUMPI DUP1 PUSH4 0xA694FC3A EQ PUSH2 0x2DB JUMPI DUP1 PUSH4 0xBD30558E EQ PUSH2 0x2F7 JUMPI DUP1 PUSH4 0xDB2E21BC EQ PUSH2 0x315 JUMPI DUP1 PUSH4 0xF2FDE38B EQ PUSH2 0x31F JUMPI PUSH2 0x116 JUMP JUMPDEST DUP1 PUSH4 0x854303CF EQ PUSH2 0x223 JUMPI DUP1 PUSH4 0x8DA5CB5B EQ PUSH2 0x23F JUMPI DUP1 PUSH4 0x9168AE72 EQ PUSH2 0x25D JUMPI DUP1 PUSH4 0x93707A19 EQ PUSH2 0x28F JUMPI PUSH2 0x116 JUMP JUMPDEST DUP1 PUSH4 0x5B35F9C9 GT PUSH2 0xE9 JUMPI DUP1 PUSH4 0x5B35F9C9 EQ PUSH2 0x1A1 JUMPI DUP1 PUSH4 0x715018A6 EQ PUSH2 0x1BF JUMPI DUP1 PUSH4 0x72F702F3 EQ PUSH2 0x1C9 JUMPI DUP1 PUSH4 0x7B0A47EE EQ PUSH2 0x1E7 JUMPI DUP1 PUSH4 0x817B1CD2 EQ PUSH2 0x205 JUMPI PUSH2 0x116 JUMP JUMPDEST DUP1 PUSH4 0x2E17DE78 EQ PUSH2 0x11B JUMPI DUP1 PUSH4 0x31D7A262 EQ PUSH2 0x137 JUMPI DUP1 PUSH4 0x372500AB EQ PUSH2 0x167 JUMPI DUP1 PUSH4 0x4DA6A556 EQ PUSH2 0x171 JUMPI JUMPDEST PUSH1 0x0 DUP1 REVERT JUMPDEST PUSH2 0x135 PUSH1 0x4 DUP1 CALLDATASIZE SUB DUP2 ADD SWAP1 PUSH2 0x130 SWAP2 SWAP1 PUSH2 0x1084 JUMP JUMPDEST PUSH2 0x33B JUMP JUMPDEST STOP JUMPDEST PUSH2 0x151 PUSH1 0x4 DUP1 CALLDATASIZE SUB DUP2 ADD SWAP1 PUSH2 0x14C SWAP2 SWAP1 PUSH2 0x110F JUMP JUMPDEST PUSH2 0x513 JUMP JUMPDEST PUSH1 0x40 MLOAD PUSH2 0x15E SWAP2 SWAP1 PUSH2 0x114B JUMP JUMPDEST PUSH1 0x40 MLOAD DUP1 SWAP2 SUB SWAP1 RETURN JUMPDEST PUSH2 0x16F PUSH2 0x5CF JUMP JUMPDEST STOP JUMPDEST PUSH2 0x18B PUSH1 0x4 DUP1 CALLDATASIZE SUB DUP2 ADD SWAP1 PUSH2 0x186 SWAP2 SWAP1 PUSH2 0x110F JUMP JUMPDEST PUSH2 0x78A JUMP JUMPDEST PUSH1 0x40 MLOAD PUSH2 0x198 SWAP2 SWAP1 PUSH2 0x114B JUMP JUMPDEST PUSH1 0x40 MLOAD DUP1 SWAP2 SUB SWAP1 RETURN JUMPDEST PUSH2 0x1A9 PUSH2 0x7D6 JUMP JUMPDEST PUSH1 0x40 MLOAD PUSH2 0x1B6 SWAP2 SWAP1 PUSH2 0x1175 JUMP JUMPDEST PUSH1 0x40 MLOAD DUP1 SWAP2 SUB SWAP1 RETURN JUMPDEST PUSH2 0x1C7 PUSH2 0x7FC JUMP JUMPDEST STOP JUMPDEST PUSH2 0x1D1 PUSH2 0x810 JUMP JUMPDEST PUSH1 0x40 MLOAD PUSH2 0x1DE SWAP2 SWAP1 PUSH2 0x11EF JUMP JUMPDEST PUSH1 0x40 MLOAD DUP1 SWAP2 SUB SWAP1 RETURN JUMPDEST PUSH2 0x1EF PUSH2 0x834 JUMP JUMPDEST PUSH1 0x40 MLOAD PUSH2 0x1FC SWAP2 SWAP1 PUSH2 0x114B JUMP JUMPDEST PUSH1 0x40 MLOAD DUP1 SWAP2 SUB SWAP1 RETURN JUMPDEST PUSH2 0x20D PUSH2 0x83A JUMP JUMPDEST PUSH1 0x40 MLOAD PUSH2 0x21A SWAP2 SWAP1 PUSH2 0x114B JUMP JUMPDEST PUSH1 0x40 MLOAD DUP1 SWAP2 SUB SWAP1 RETURN JUMPDEST PUSH2 0x23D PUSH1 0x4 DUP1 CALLDATASIZE SUB DUP2 ADD SWAP1 PUSH2 0x238 SWAP2 SWAP1 PUSH2 0x1084 JUMP JUMPDEST PUSH2 0x840 JUMP JUMPDEST STOP JUMPDEST PUSH2 0x247 PUSH2 0x895 JUMP JUMPDEST PUSH1 0x40 MLOAD PUSH2 0x254 SWAP2 SWAP1 PUSH2 0x1175 JUMP JUMPDEST PUSH1 0x40 MLOAD DUP1 SWAP2 SUB SWAP1 RETURN JUMPDEST PUSH2 0x277 PUSH1 0x4 DUP1 CALLDATASIZE SUB DUP2 ADD SWAP1 PUSH2 0x272 SWAP2 SWAP1 PUSH2 0x110F JUMP JUMPDEST PUSH2 0x8BE JUMP JUMPDEST PUSH1 0x40 MLOAD PUSH2 0x286 SWAP4 SWAP3 SWAP2 SWAP1 PUSH2 0x120A JUMP JUMPDEST PUSH1 0x40 MLOAD DUP1 SWAP2 SUB SWAP1 RETURN JUMPDEST PUSH2 0x2A9 PUSH1 0x4 DUP1 CALLDATASIZE SUB DUP2 ADD SWAP1 PUSH2 0x2A4 SWAP2 SWAP1 PUSH2 0x1084 JUMP JUMPDEST PUSH2 0x8E8 JUMP JUMPDEST STOP JUMPDEST PUSH2 0x2C5 PUSH1 0x4 DUP1 CALLDATASIZE SUB DUP2 ADD SWAP1 PUSH2 0x2C0 SWAP2 SWAP1 PUSH2 0x110F JUMP JUMPDEST PUSH2 0xA72 JUMP JUMPDEST PUSH1 0x40 MLOAD PUSH2 0x2D2 SWAP2 SWAP1 PUSH2 0x114B JUMP JUMPDEST PUSH1 0x40 MLOAD DUP1 SWAP2 SUB SWAP1 RETURN JUMPDEST PUSH2 0x2F5 PUSH1 0x4 DUP1 CALLDATASIZE SUB DUP2 ADD SWAP1 PUSH2 0x2F0 SWAP2 SWAP1 PUSH2 0x1084 JUMP JUMPDEST PUSH2 0xAD1 JUMP JUMPDEST STOP JUMPDEST PUSH2 0x2FF PUSH2 0xCB0 JUMP JUMPDEST PUSH1 0x40 MLOAD PUSH2 0x30C SWAP2 SWAP1 PUSH2 0x114B JUMP JUMPDEST PUSH1 0x40 MLOAD DUP1 SWAP2 SUB SWAP1 RETURN JUMPDEST PUSH2 0x31D PUSH2 0xCB6 JUMP JUMPDEST STOP JUMPDEST PUSH2 0x339 PUSH1 0x4 DUP1 CALLDATASIZE SUB DUP2 ADD SWAP1 PUSH2 0x334 SWAP2 SWAP1 PUSH2 0x110F JUMP JUMPDEST PUSH2 0xE70 JUMP JUMPDEST STOP JUMPDEST PUSH1 0x0 PUSH1 0x5 PUSH1 0x0 CALLER PUSH20 0xFFFFFFFFFFFFFFFFFFFFFFFFFFFFFFFFFFFFFFFF AND PUSH20 0xFFFFFFFFFFFFFFFFFFFFFFFFFFFFFFFFFFFFFFFF AND DUP2 MSTORE PUSH1 0x20 ADD SWAP1 DUP2 MSTORE PUSH1 0x20 ADD PUSH1 0x0 KECCAK256 SWAP1 POP DUP2 DUP2 PUSH1 0x0 ADD SLOAD LT ISZERO PUSH2 0x3C5 JUMPI PUSH1 0x40 MLOAD PUSH32 0x8C379A000000000000000000000000000000000000000000000000000000000 DUP2 MSTORE PUSH1 0x4 ADD PUSH2 0x3BC SWAP1 PUSH2 0x129E JUMP JUMPDEST PUSH1 0x40 MLOAD DUP1 SWAP2 SUB SWAP1 REVERT JUMPDEST PUSH1 0x0 PUSH2 0x3D0 CALLER PUSH2 0x513 JUMP JUMPDEST SWAP1 POP PUSH1 0x0 DUP2 GT ISZERO PUSH2 0x3E4 JUMPI PUSH2 0x3E3 PUSH2 0x5CF JUMP JUMPDEST JUMPDEST DUP3 DUP3 PUSH1 0x0 ADD PUSH1 0x0 DUP3 DUP3 SLOAD PUSH2 0x3F8 SWAP2 SWAP1 PUSH2 0x12ED JUMP JUMPDEST SWAP3 POP POP DUP2 SWAP1 SSTORE POP TIMESTAMP DUP3 PUSH1 0x2 ADD DUP2 SWAP1 SSTORE POP DUP3 PUSH1 0x2 PUSH1 0x0 DUP3 DUP3 SLOAD PUSH2 0x41A SWAP2 SWAP1 PUSH2 0x12ED JUMP JUMPDEST SWAP3 POP POP DUP2 SWAP1 SSTORE POP PUSH32 0x0 PUSH20 0xFFFFFFFFFFFFFFFFFFFFFFFFFFFFFFFFFFFFFFFF AND PUSH4 0xA9059CBB CALLER DUP6 PUSH1 0x40 MLOAD DUP4 PUSH4 0xFFFFFFFF AND PUSH1 0xE0 SHL DUP2 MSTORE PUSH1 0x4 ADD PUSH2 0x47C SWAP3 SWAP2 SWAP1 PUSH2 0x1321 JUMP JUMPDEST PUSH1 0x20 PUSH1 0x40 MLOAD DUP1 DUP4 SUB DUP2 PUSH1 0x0 DUP8 GAS CALL ISZERO DUP1 ISZERO PUSH2 0x49B JUMPI RETURNDATASIZE PUSH1 0x0 DUP1 RETURNDATACOPY RETURNDATASIZE PUSH1 0x0 REVERT JUMPDEST POP POP POP POP PUSH1 0x40 MLOAD RETURNDATASIZE PUSH1 0x1F NOT PUSH1 0x1F DUP3 ADD AND DUP3 ADD DUP1 PUSH1 0x40 MSTORE POP DUP2 ADD SWAP1 PUSH2 0x4BF SWAP2 SWAP1 PUSH2 0x1382 JUMP JUMPDEST POP CALLER PUSH20 0xFFFFFFFFFFFFFFFFFFFFFFFFFFFFFFFFFFFFFFFF AND PUSH32 0xF5BB82176FEB1B5E747E28471AA92156A04D9F3AB9F45F28E2D704232B93F75 DUP5 PUSH1 0x40 MLOAD PUSH2 0x506 SWAP2 SWAP1 PUSH2 0x114B JUMP JUMPDEST PUSH1 0x40 MLOAD DUP1 SWAP2 SUB SWAP1 LOG2 POP POP POP JUMP JUMPDEST PUSH1 0x0 DUP1 PUSH1 0x5 PUSH1 0x0 DUP5 PUSH20 0xFFFFFFFFFFFFFFFFFFFFFFFFFFFFFFFFFFFFFFFF AND PUSH20 0xFFFFFFFFFFFFFFFFFFFFFFFFFFFFFFFFFFFFFFFF AND DUP2 MSTORE PUSH1 0x20 ADD SWAP1 DUP2 MSTORE PUSH1 0x20 ADD PUSH1 0x0 KECCAK256 SWAP1 POP PUSH1 0x0 DUP2 PUSH1 0x0 ADD SLOAD SUB PUSH2 0x56D JUMPI PUSH1 0x0 SWAP2 POP POP PUSH2 0x5CA JUMP JUMPDEST PUSH1 0x0 DUP2 PUSH1 0x2 ADD SLOAD TIMESTAMP PUSH2 0x57F SWAP2 SWAP1 PUSH2 0x12ED JUMP JUMPDEST SWAP1 POP PUSH1 0x0 PUSH1 0x64 PUSH1 0x3 SLOAD DUP5 PUSH1 0x0 ADD SLOAD PUSH2 0x597 SWAP2 SWAP1 PUSH2 0x13AF JUMP JUMPDEST PUSH2 0x5A1 SWAP2 SWAP1 PUSH2 0x1420 JUMP JUMPDEST SWAP1 POP PUSH1 0x0 PUSH4 0x1E13380 DUP4 DUP4 PUSH2 0x5B6 SWAP2 SWAP1 PUSH2 0x13AF JUMP JUMPDEST PUSH2 0x5C0 SWAP2 SWAP1 PUSH2 0x1420 JUMP JUMPDEST SWAP1 POP DUP1 SWAP5 POP POP POP POP POP JUMPDEST SWAP2 SWAP1 POP JUMP JUMPDEST PUSH1 0x0 PUSH1 0x5 PUSH1 0x0 CALLER PUSH20 0xFFFFFFFFFFFFFFFFFFFFFFFFFFFFFFFFFFFFFFFF AND PUSH20 0xFFFFFFFFFFFFFFFFFFFFFFFFFFFFFFFFFFFFFFFF AND DUP2 MSTORE PUSH1 0x20 ADD SWAP1 DUP2 MSTORE PUSH1 0x20 ADD PUSH1 0x0 KECCAK256 SWAP1 POP PUSH1 0x0 PUSH2 0x61D CALLER PUSH2 0x513 JUMP JUMPDEST SWAP1 POP PUSH1 0x0 DUP2 GT PUSH2 0x662 JUMPI PUSH1 0x40 MLOAD PUSH32 0x8C379A000000000000000000000000000000000000000000000000000000000 DUP2 MSTORE PUSH1 0x4 ADD PUSH2 0x659 SWAP1 PUSH2 0x149D JUMP JUMPDEST PUSH1 0x40 MLOAD DUP1 SWAP2 SUB SWAP1 REVERT JUMPDEST PUSH1 0x0 DUP3 PUSH1 0x1 ADD DUP2 SWAP1 SSTORE POP TIMESTAMP DUP3 PUSH1 0x2 ADD DUP2 SWAP1 SSTORE POP PUSH32 0x0 PUSH20 0xFFFFFFFFFFFFFFFFFFFFFFFFFFFFFFFFFFFFFFFF AND PUSH4 0x23B872DD PUSH1 0x4 PUSH1 0x0 SWAP1 SLOAD SWAP1 PUSH2 0x100 EXP SWAP1 DIV PUSH20 0xFFFFFFFFFFFFFFFFFFFFFFFFFFFFFFFFFFFFFFFF AND CALLER DUP5 PUSH1 0x40 MLOAD DUP5 PUSH4 0xFFFFFFFF AND PUSH1 0xE0 SHL DUP2 MSTORE PUSH1 0x4 ADD PUSH2 0x6F4 SWAP4 SWAP3 SWAP2 SWAP1 PUSH2 0x14BD JUMP JUMPDEST PUSH1 0x20 PUSH1 0x40 MLOAD DUP1 DUP4 SUB DUP2 PUSH1 0x0 DUP8 GAS CALL ISZERO DUP1 ISZERO PUSH2 0x713 JUMPI RETURNDATASIZE PUSH1 0x0 DUP1 RETURNDATACOPY RETURNDATASIZE PUSH1 0x0 REVERT JUMPDEST POP POP POP POP PUSH1 0x40 MLOAD RETURNDATASIZE PUSH1 0x1F NOT PUSH1 0x1F DUP3 ADD AND DUP3 ADD DUP1 PUSH1 0x40 MSTORE POP DUP2 ADD SWAP1 PUSH2 0x737 SWAP2 SWAP1 PUSH2 0x1382 JUMP JUMPDEST POP CALLER PUSH20 0xFFFFFFFFFFFFFFFFFFFFFFFFFFFFFFFFFFFFFFFF AND PUSH32 0xFC30CDDEA38E2BF4D6EA7D3F9ED3B6AD7F176419F4963BD81318067A4AEE73FE DUP3 PUSH1 0x40 MLOAD PUSH2 0x77E SWAP2 SWAP1 PUSH2 0x114B JUMP JUMPDEST PUSH1 0x40 MLOAD DUP1 SWAP2 SUB SWAP1 LOG2 POP POP JUMP JUMPDEST PUSH1 0x0 PUSH1 0x5 PUSH1 0x0 DUP4 PUSH20 0xFFFFFFFFFFFFFFFFFFFFFFFFFFFFFFFFFFFFFFFF AND PUSH20 0xFFFFFFFFFFFFFFFFFFFFFFFFFFFFFFFFFFFFFFFF AND DUP2 MSTORE PUSH1 0x20 ADD SWAP1 DUP2 MSTORE PUSH1 0x20 ADD PUSH1 0x0 KECCAK256 PUSH1 0x0 ADD SLOAD SWAP1 POP SWAP2 SWAP1 POP JUMP JUMPDEST PUSH1 0x4 PUSH1 0x0 SWAP1 SLOAD SWAP1 PUSH2 0x100 EXP SWAP1 DIV PUSH20 0xFFFFFFFFFFFFFFFFFFFFFFFFFFFFFFFFFFFFFFFF AND DUP2 JUMP JUMPDEST PUSH2 0x804 PUSH2 0xEF6 JUMP JUMPDEST PUSH2 0x80E PUSH1 0x0 PUSH2 0xF7D JUMP JUMPDEST JUMP JUMPDEST PUSH32 0x0 DUP2 JUMP JUMPDEST PUSH1 0x1 SLOAD DUP2 JUMP JUMPDEST PUSH1 0x2 SLOAD DUP2 JUMP JUMPDEST PUSH2 0x848 PUSH2 0xEF6 JUMP JUMPDEST PUSH1 0x0 DUP2 GT PUSH2 0x88B JUMPI PUSH1 0x40 MLOAD PUSH32 0x8C379A000000000000000000000000000000000000000000000000000000000 DUP2 MSTORE PUSH1 0x4 ADD PUSH2 0x882 SWAP1 PUSH2 0x1540 JUMP JUMPDEST PUSH1 0x40 MLOAD DUP1 SWAP2 SUB SWAP1 REVERT JUMPDEST DUP1 PUSH1 0x3 DUP2 SWAP1 SSTORE POP POP JUMP JUMPDEST PUSH1 0x0 DUP1 PUSH1 0x0 SWAP1 SLOAD SWAP1 PUSH2 0x100 EXP SWAP1 DIV PUSH20 0xFFFFFFFFFFFFFFFFFFFFFFFFFFFFFFFFFFFFFFFF AND SWAP1 POP SWAP1 JUMP JUMPDEST PUSH1 0x5 PUSH1 0x20 MSTORE DUP1 PUSH1 0x0 MSTORE PUSH1 0x40 PUSH1 0x0 KECCAK256 PUSH1 0x0 SWAP2 POP SWAP1 POP DUP1 PUSH1 0x0 ADD SLOAD SWAP1 DUP1 PUSH1 0x1 ADD SLOAD SWAP1 DUP1 PUSH1 0x2 ADD SLOAD SWAP1 POP DUP4 JUMP JUMPDEST PUSH2 0x8F0 PUSH2 0xEF6 JUMP JUMPDEST DUP1 PUSH32 0x0 PUSH20 0xFFFFFFFFFFFFFFFFFFFFFFFFFFFFFFFFFFFFFFFF AND PUSH4 0xDD62ED3E CALLER ADDRESS PUSH1 0x40 MLOAD DUP4 PUSH4 0xFFFFFFFF AND PUSH1 0xE0 SHL DUP2 MSTORE PUSH1 0x4 ADD PUSH2 0x94C SWAP3 SWAP2 SWAP1 PUSH2 0x1560 JUMP JUMPDEST PUSH1 0x20 PUSH1 0x40 MLOAD DUP1 DUP4 SUB DUP2 DUP7 GAS STATICCALL ISZERO DUP1 ISZERO PUSH2 0x969 JUMPI RETURNDATASIZE PUSH1 0x0 DUP1 RETURNDATACOPY RETURNDATASIZE PUSH1 0x0 REVERT JUMPDEST POP POP POP POP PUSH1 0x40 MLOAD RETURNDATASIZE PUSH1 0x1F NOT PUSH1 0x1F DUP3 ADD AND DUP3 ADD DUP1 PUSH1 0x40 MSTORE POP DUP2 ADD SWAP1 PUSH2 0x98D SWAP2 SWAP1 PUSH2 0x159E JUMP JUMPDEST LT ISZERO PUSH2 0x9CE JUMPI PUSH1 0x40 MLOAD PUSH32 0x8C379A000000000000000000000000000000000000000000000000000000000 DUP2 MSTORE PUSH1 0x4 ADD PUSH2 0x9C5 SWAP1 PUSH2 0x1617 JUMP JUMPDEST PUSH1 0x40 MLOAD DUP1 SWAP2 SUB SWAP1 REVERT JUMPDEST PUSH32 0x0 PUSH20 0xFFFFFFFFFFFFFFFFFFFFFFFFFFFFFFFFFFFFFFFF AND PUSH4 0x23B872DD CALLER ADDRESS DUP5 PUSH1 0x40 MLOAD DUP5 PUSH4 0xFFFFFFFF AND PUSH1 0xE0 SHL DUP2 MSTORE PUSH1 0x4 ADD PUSH2 0xA2B SWAP4 SWAP3 SWAP2 SWAP1 PUSH2 0x14BD JUMP JUMPDEST PUSH1 0x20 PUSH1 0x40 MLOAD DUP1 DUP4 SUB DUP2 PUSH1 0x0 DUP8 GAS CALL ISZERO DUP1 ISZERO PUSH2 0xA4A JUMPI RETURNDATASIZE PUSH1 0x0 DUP1 RETURNDATACOPY RETURNDATASIZE PUSH1 0x0 REVERT JUMPDEST POP POP POP POP PUSH1 0x40 MLOAD RETURNDATASIZE PUSH1 0x1F NOT PUSH1 0x1F DUP3 ADD AND DUP3 ADD DUP1 PUSH1 0x40 MSTORE POP DUP2 ADD SWAP1 PUSH2 0xA6E SWAP2 SWAP1 PUSH2 0x1382 JUMP JUMPDEST POP POP JUMP JUMPDEST PUSH1 0x0 PUSH2 0xA7D DUP3 PUSH2 0x513 JUMP JUMPDEST PUSH1 0x5 PUSH1 0x0 DUP5 PUSH20 0xFFFFFFFFFFFFFFFFFFFFFFFFFFFFFFFFFFFFFFFF AND PUSH20 0xFFFFFFFFFFFFFFFFFFFFFFFFFFFFFFFFFFFFFFFF AND DUP2 MSTORE PUSH1 0x20 ADD SWAP1 DUP2 MSTORE PUSH1 0x20 ADD PUSH1 0x0 KECCAK256 PUSH1 0x1 ADD SLOAD PUSH2 0xACA SWAP2 SWAP1 PUSH2 0x1637 JUMP JUMPDEST SWAP1 POP SWAP2 SWAP1 POP JUMP JUMPDEST PUSH1 0x0 DUP2 GT PUSH2 0xB14 JUMPI PUSH1 0x40 MLOAD PUSH32 0x8C379A000000000000000000000000000000000000000000000000000000000 DUP2 MSTORE PUSH1 0x4 ADD PUSH2 0xB0B SWAP1 PUSH2 0x16B7 JUMP JUMPDEST PUSH1 0x40 MLOAD DUP1 SWAP2 SUB SWAP1 REVERT JUMPDEST PUSH32 0x0 PUSH20 0xFFFFFFFFFFFFFFFFFFFFFFFFFFFFFFFFFFFFFFFF AND PUSH4 0x23B872DD CALLER ADDRESS DUP5 PUSH1 0x40 MLOAD DUP5 PUSH4 0xFFFFFFFF AND PUSH1 0xE0 SHL DUP2 MSTORE PUSH1 0x4 ADD PUSH2 0xB71 SWAP4 SWAP3 SWAP2 SWAP1 PUSH2 0x14BD JUMP JUMPDEST PUSH1 0x20 PUSH1 0x40 MLOAD DUP1 DUP4 SUB DUP2 PUSH1 0x0 DUP8 GAS CALL ISZERO DUP1 ISZERO PUSH2 0xB90 JUMPI RETURNDATASIZE PUSH1 0x0 DUP1 RETURNDATACOPY RETURNDATASIZE PUSH1 0x0 REVERT JUMPDEST POP POP POP POP PUSH1 0x40 MLOAD RETURNDATASIZE PUSH1 0x1F NOT PUSH1 0x1F DUP3 ADD AND DUP3 ADD DUP1 PUSH1 0x40 MSTORE POP DUP2 ADD SWAP1 PUSH2 0xBB4 SWAP2 SWAP1 PUSH2 0x1382 JUMP JUMPDEST POP PUSH1 0x0 PUSH1 0x5 PUSH1 0x0 CALLER PUSH20 0xFFFFFFFFFFFFFFFFFFFFFFFFFFFFFFFFFFFFFFFF AND PUSH20 0xFFFFFFFFFFFFFFFFFFFFFFFFFFFFFFFFFFFFFFFF AND DUP2 MSTORE PUSH1 0x20 ADD SWAP1 DUP2 MSTORE PUSH1 0x20 ADD PUSH1 0x0 KECCAK256 SWAP1 POP PUSH1 0x0 PUSH2 0xC03 CALLER PUSH2 0x513 JUMP JUMPDEST SWAP1 POP DUP1 DUP3 PUSH1 0x1 ADD PUSH1 0x0 DUP3 DUP3 SLOAD PUSH2 0xC19 SWAP2 SWAP1 PUSH2 0x1637 JUMP JUMPDEST SWAP3 POP POP DUP2 SWAP1 SSTORE POP DUP3 DUP3 PUSH1 0x0 ADD PUSH1 0x0 DUP3 DUP3 SLOAD PUSH2 0xC34 SWAP2 SWAP1 PUSH2 0x1637 JUMP JUMPDEST SWAP3 POP POP DUP2 SWAP1 SSTORE POP TIMESTAMP DUP3 PUSH1 0x2 ADD DUP2 SWAP1 SSTORE POP DUP3 PUSH1 0x2 PUSH1 0x0 DUP3 DUP3 SLOAD PUSH2 0xC56 SWAP2 SWAP1 PUSH2 0x1637 JUMP JUMPDEST SWAP3 POP POP DUP2 SWAP1 SSTORE POP CALLER PUSH20 0xFFFFFFFFFFFFFFFFFFFFFFFFFFFFFFFFFFFFFFFF AND PUSH32 0x9E71BC8EEA02A63969F509818F2DAFB9254532904319F9DBDA79B67BD34A5F3D DUP5 PUSH1 0x40 MLOAD PUSH2 0xCA3 SWAP2 SWAP1 PUSH2 0x114B JUMP JUMPDEST PUSH1 0x40 MLOAD DUP1 SWAP2 SUB SWAP1 LOG2 POP POP POP JUMP JUMPDEST PUSH1 0x3 SLOAD DUP2 JUMP JUMPDEST PUSH1 0x0 PUSH1 0x5 PUSH1 0x0 CALLER PUSH20 0xFFFFFFFFFFFFFFFFFFFFFFFFFFFFFFFFFFFFFFFF AND PUSH20 0xFFFFFFFFFFFFFFFFFFFFFFFFFFFFFFFFFFFFFFFF AND DUP2 MSTORE PUSH1 0x20 ADD SWAP1 DUP2 MSTORE PUSH1 0x20 ADD PUSH1 0x0 KECCAK256 SWAP1 POP PUSH1 0x0 DUP2 PUSH1 0x0 ADD SLOAD GT PUSH2 0xD40 JUMPI PUSH1 0x40 MLOAD PUSH32 0x8C379A000000000000000000000000000000000000000000000000000000000 DUP2 MSTORE PUSH1 0x4 ADD PUSH2 0xD37 SWAP1 PUSH2 0x1723 JUMP JUMPDEST PUSH1 0x40 MLOAD DUP1 SWAP2 SUB SWAP1 REVERT JUMPDEST PUSH1 0x0 DUP2 PUSH1 0x0 ADD SLOAD SWAP1 POP PUSH1 0x0 DUP3 PUSH1 0x0 ADD DUP2 SWAP1 SSTORE POP PUSH1 0x0 DUP3 PUSH1 0x1 ADD DUP2 SWAP1 SSTORE POP TIMESTAMP DUP3 PUSH1 0x2 ADD DUP2 SWAP1 SSTORE POP DUP1 PUSH1 0x2 PUSH1 0x0 DUP3 DUP3 SLOAD PUSH2 0xD78 SWAP2 SWAP1 PUSH2 0x12ED JUMP JUMPDEST SWAP3 POP POP DUP2 SWAP1 SSTORE POP PUSH32 0x0 PUSH20 0xFFFFFFFFFFFFFFFFFFFFFFFFFFFFFFFFFFFFFFFF AND PUSH4 0xA9059CBB CALLER DUP4 PUSH1 0x40 MLOAD DUP4 PUSH4 0xFFFFFFFF AND PUSH1 0xE0 SHL DUP2 MSTORE PUSH1 0x4 ADD PUSH2 0xDDA SWAP3 SWAP2 SWAP1 PUSH2 0x1321 JUMP JUMPDEST PUSH1 0x20 PUSH1 0x40 MLOAD DUP1 DUP4 SUB DUP2 PUSH1 0x0 DUP8 GAS CALL ISZERO DUP1 ISZERO PUSH2 0xDF9 JUMPI RETURNDATASIZE PUSH1 0x0 DUP1 RETURNDATACOPY RETURNDATASIZE PUSH1 0x0 REVERT JUMPDEST POP POP POP POP PUSH1 0x40 MLOAD RETURNDATASIZE PUSH1 0x1F NOT PUSH1 0x1F DUP3 ADD AND DUP3 ADD DUP1 PUSH1 0x40 MSTORE POP DUP2 ADD SWAP1 PUSH2 0xE1D SWAP2 SWAP1 PUSH2 0x1382 JUMP JUMPDEST POP CALLER PUSH20 0xFFFFFFFFFFFFFFFFFFFFFFFFFFFFFFFFFFFFFFFF AND PUSH32 0xF5BB82176FEB1B5E747E28471AA92156A04D9F3AB9F45F28E2D704232B93F75 DUP3 PUSH1 0x40 MLOAD PUSH2 0xE64 SWAP2 SWAP1 PUSH2 0x114B JUMP JUMPDEST PUSH1 0x40 MLOAD DUP1 SWAP2 SUB SWAP1 LOG2 POP POP JUMP JUMPDEST PUSH2 0xE78 PUSH2 0xEF6 JUMP JUMPDEST PUSH1 0x0 PUSH20 0xFFFFFFFFFFFFFFFFFFFFFFFFFFFFFFFFFFFFFFFF AND DUP2 PUSH20 0xFFFFFFFFFFFFFFFFFFFFFFFFFFFFFFFFFFFFFFFF AND SUB PUSH2 0xEEA JUMPI PUSH1 0x0 PUSH1 0x40 MLOAD PUSH32 0x1E4FBDF700000000000000000000000000000000000000000000000000000000 DUP2 MSTORE PUSH1 0x4 ADD PUSH2 0xEE1 SWAP2 SWAP1 PUSH2 0x1175 JUMP JUMPDEST PUSH1 0x40 MLOAD DUP1 SWAP2 SUB SWAP1 REVERT JUMPDEST PUSH2 0xEF3 DUP2 PUSH2 0xF7D JUMP JUMPDEST POP JUMP JUMPDEST PUSH2 0xEFE PUSH2 0x1041 JUMP JUMPDEST PUSH20 0xFFFFFFFFFFFFFFFFFFFFFFFFFFFFFFFFFFFFFFFF AND PUSH2 0xF1C PUSH2 0x895 JUMP JUMPDEST PUSH20 0xFFFFFFFFFFFFFFFFFFFFFFFFFFFFFFFFFFFFFFFF AND EQ PUSH2 0xF7B JUMPI PUSH2 0xF3F PUSH2 0x1041 JUMP JUMPDEST PUSH1 0x40 MLOAD PUSH32 0x118CDAA700000000000000000000000000000000000000000000000000000000 DUP2 MSTORE PUSH1 0x4 ADD PUSH2 0xF72 SWAP2 SWAP1 PUSH2 0x1175 JUMP JUMPDEST PUSH1 0x40 MLOAD DUP1 SWAP2 SUB SWAP1 REVERT JUMPDEST JUMP JUMPDEST PUSH1 0x0 DUP1 PUSH1 0x0 SWAP1 SLOAD SWAP1 PUSH2 0x100 EXP SWAP1 DIV PUSH20 0xFFFFFFFFFFFFFFFFFFFFFFFFFFFFFFFFFFFFFFFF AND SWAP1 POP DUP2 PUSH1 0x0 DUP1 PUSH2 0x100 EXP DUP2 SLOAD DUP2 PUSH20 0xFFFFFFFFFFFFFFFFFFFFFFFFFFFFFFFFFFFFFFFF MUL NOT AND SWAP1 DUP4 PUSH20 0xFFFFFFFFFFFFFFFFFFFFFFFFFFFFFFFFFFFFFFFF AND MUL OR SWAP1 SSTORE POP DUP2 PUSH20 0xFFFFFFFFFFFFFFFFFFFFFFFFFFFFFFFFFFFFFFFF AND DUP2 PUSH20 0xFFFFFFFFFFFFFFFFFFFFFFFFFFFFFFFFFFFFFFFF AND PUSH32 0x8BE0079C531659141344CD1FD0A4F28419497F9722A3DAAFE3B4186F6B6457E0 PUSH1 0x40 MLOAD PUSH1 0x40 MLOAD DUP1 SWAP2 SUB SWAP1 LOG3 POP POP JUMP JUMPDEST PUSH1 0x0 CALLER SWAP1 POP SWAP1 JUMP JUMPDEST PUSH1 0x0 DUP1 REVERT JUMPDEST PUSH1 0x0 DUP2 SWAP1 POP SWAP2 SWAP1 POP JUMP JUMPDEST PUSH2 0x1061 DUP2 PUSH2 0x104E JUMP JUMPDEST DUP2 EQ PUSH2 0x106C JUMPI PUSH1 0x0 DUP1 REVERT JUMPDEST POP JUMP JUMPDEST PUSH1 0x0 DUP2 CALLDATALOAD SWAP1 POP PUSH2 0x107E DUP2 PUSH2 0x1058 JUMP JUMPDEST SWAP3 SWAP2 POP POP JUMP JUMPDEST PUSH1 0x0 PUSH1 0x20 DUP3 DUP5 SUB SLT ISZERO PUSH2 0x109A JUMPI PUSH2 0x1099 PUSH2 0x1049 JUMP JUMPDEST JUMPDEST PUSH1 0x0 PUSH2 0x10A8 DUP5 DUP3 DUP6 ADD PUSH2 0x106F JUMP JUMPDEST SWAP2 POP POP SWAP3 SWAP2 POP POP JUMP JUMPDEST PUSH1 0x0 PUSH20 0xFFFFFFFFFFFFFFFFFFFFFFFFFFFFFFFFFFFFFFFF DUP3 AND SWAP1 POP SWAP2 SWAP1 POP JUMP JUMPDEST PUSH1 0x0 PUSH2 0x10DC DUP3 PUSH2 0x10B1 JUMP JUMPDEST SWAP1 POP SWAP2 SWAP1 POP JUMP JUMPDEST PUSH2 0x10EC DUP2 PUSH2 0x10D1 JUMP JUMPDEST DUP2 EQ PUSH2 0x10F7 JUMPI PUSH1 0x0 DUP1 REVERT JUMPDEST POP JUMP JUMPDEST PUSH1 0x0 DUP2 CALLDATALOAD SWAP1 POP PUSH2 0x1109 DUP2 PUSH2 0x10E3 JUMP JUMPDEST SWAP3 SWAP2 POP POP JUMP JUMPDEST PUSH1 0x0 PUSH1 0x20 DUP3 DUP5 SUB SLT ISZERO PUSH2 0x1125 JUMPI PUSH2 0x1124 PUSH2 0x1049 JUMP JUMPDEST JUMPDEST PUSH1 0x0 PUSH2 0x1133 DUP5 DUP3 DUP6 ADD PUSH2 0x10FA JUMP JUMPDEST SWAP2 POP POP SWAP3 SWAP2 POP POP JUMP JUMPDEST PUSH2 0x1145 DUP2 PUSH2 0x104E JUMP JUMPDEST DUP3 MSTORE POP POP JUMP JUMPDEST PUSH1 0x0 PUSH1 0x20 DUP3 ADD SWAP1 POP PUSH2 0x1160 PUSH1 0x0 DUP4 ADD DUP5 PUSH2 0x113C JUMP JUMPDEST SWAP3 SWAP2 POP POP JUMP JUMPDEST PUSH2 0x116F DUP2 PUSH2 0x10D1 JUMP JUMPDEST DUP3 MSTORE POP POP JUMP JUMPDEST PUSH1 0x0 PUSH1 0x20 DUP3 ADD SWAP1 POP PUSH2 0x118A PUSH1 0x0 DUP4 ADD DUP5 PUSH2 0x1166 JUMP JUMPDEST SWAP3 SWAP2 POP POP JUMP JUMPDEST PUSH1 0x0 DUP2 SWAP1 POP SWAP2 SWAP1 POP JUMP JUMPDEST PUSH1 0x0 PUSH2 0x11B5 PUSH2 0x11B0 PUSH2 0x11AB DUP5 PUSH2 0x10B1 JUMP JUMPDEST PUSH2 0x1190 JUMP JUMPDEST PUSH2 0x10B1 JUMP JUMPDEST SWAP1 POP SWAP2 SWAP1 POP JUMP JUMPDEST PUSH1 0x0 PUSH2 0x11C7 DUP3 PUSH2 0x119A JUMP JUMPDEST SWAP1 POP SWAP2 SWAP1 POP JUMP JUMPDEST PUSH1 0x0 PUSH2 0x11D9 DUP3 PUSH2 0x11BC JUMP JUMPDEST SWAP1 POP SWAP2 SWAP1 POP JUMP JUMPDEST PUSH2 0x11E9 DUP2 PUSH2 0x11CE JUMP JUMPDEST DUP3 MSTORE POP POP JUMP JUMPDEST PUSH1 0x0 PUSH1 0x20 DUP3 ADD SWAP1 POP PUSH2 0x1204 PUSH1 0x0 DUP4 ADD DUP5 PUSH2 0x11E0 JUMP JUMPDEST SWAP3 SWAP2 POP POP JUMP JUMPDEST PUSH1 0x0 PUSH1 0x60 DUP3 ADD SWAP1 POP PUSH2 0x121F PUSH1 0x0 DUP4 ADD DUP7 PUSH2 0x113C JUMP JUMPDEST PUSH2 0x122C PUSH1 0x20 DUP4 ADD DUP6 PUSH2 0x113C JUMP JUMPDEST PUSH2 0x1239 PUSH1 0x40 DUP4 ADD DUP5 PUSH2 0x113C JUMP JUMPDEST SWAP5 SWAP4 POP POP POP POP JUMP JUMPDEST PUSH1 0x0 DUP3 DUP3 MSTORE PUSH1 0x20 DUP3 ADD SWAP1 POP SWAP3 SWAP2 POP POP JUMP JUMPDEST PUSH32 0x496E73756666696369656E742062616C616E6365000000000000000000000000 PUSH1 0x0 DUP3 ADD MSTORE POP JUMP JUMPDEST PUSH1 0x0 PUSH2 0x1288 PUSH1 0x14 DUP4 PUSH2 0x1241 JUMP JUMPDEST SWAP2 POP PUSH2 0x1293 DUP3 PUSH2 0x1252 JUMP JUMPDEST PUSH1 0x20 DUP3 ADD SWAP1 POP SWAP2 SWAP1 POP JUMP JUMPDEST PUSH1 0x0 PUSH1 0x20 DUP3 ADD SWAP1 POP DUP2 DUP2 SUB PUSH1 0x0 DUP4 ADD MSTORE PUSH2 0x12B7 DUP2 PUSH2 0x127B JUMP JUMPDEST SWAP1 POP SWAP2 SWAP1 POP JUMP JUMPDEST PUSH32 0x4E487B7100000000000000000000000000000000000000000000000000000000 PUSH1 0x0 MSTORE PUSH1 0x11 PUSH1 0x4 MSTORE PUSH1 0x24 PUSH1 0x0 REVERT JUMPDEST PUSH1 0x0 PUSH2 0x12F8 DUP3 PUSH2 0x104E JUMP JUMPDEST SWAP2 POP PUSH2 0x1303 DUP4 PUSH2 0x104E JUMP JUMPDEST SWAP3 POP DUP3 DUP3 SUB SWAP1 POP DUP2 DUP2 GT ISZERO PUSH2 0x131B JUMPI PUSH2 0x131A PUSH2 0x12BE JUMP JUMPDEST JUMPDEST SWAP3 SWAP2 POP POP JUMP JUMPDEST PUSH1 0x0 PUSH1 0x40 DUP3 ADD SWAP1 POP PUSH2 0x1336 PUSH1 0x0 DUP4 ADD DUP6 PUSH2 0x1166 JUMP JUMPDEST PUSH2 0x1343 PUSH1 0x20 DUP4 ADD DUP5 PUSH2 0x113C JUMP JUMPDEST SWAP4 SWAP3 POP POP POP JUMP JUMPDEST PUSH1 0x0 DUP2 ISZERO ISZERO SWAP1 POP SWAP2 SWAP1 POP JUMP JUMPDEST PUSH2 0x135F DUP2 PUSH2 0x134A JUMP JUMPDEST DUP2 EQ PUSH2 0x136A JUMPI PUSH1 0x0 DUP1 REVERT JUMPDEST POP JUMP JUMPDEST PUSH1 0x0 DUP2 MLOAD SWAP1 POP PUSH2 0x137C DUP2 PUSH2 0x1356 JUMP JUMPDEST SWAP3 SWAP2 POP POP JUMP JUMPDEST PUSH1 0x0 PUSH1 0x20 DUP3 DUP5 SUB SLT ISZERO PUSH2 0x1398 JUMPI PUSH2 0x1397 PUSH2 0x1049 JUMP JUMPDEST JUMPDEST PUSH1 0x0 PUSH2 0x13A6 DUP5 DUP3 DUP6 ADD PUSH2 0x136D JUMP JUMPDEST SWAP2 POP POP SWAP3 SWAP2 POP POP JUMP JUMPDEST PUSH1 0x0 PUSH2 0x13BA DUP3 PUSH2 0x104E JUMP JUMPDEST SWAP2 POP PUSH2 0x13C5 DUP4 PUSH2 0x104E JUMP JUMPDEST SWAP3 POP DUP3 DUP3 MUL PUSH2 0x13D3 DUP2 PUSH2 0x104E JUMP JUMPDEST SWAP2 POP DUP3 DUP3 DIV DUP5 EQ DUP4 ISZERO OR PUSH2 0x13EA JUMPI PUSH2 0x13E9 PUSH2 0x12BE JUMP JUMPDEST JUMPDEST POP SWAP3 SWAP2 POP POP JUMP JUMPDEST PUSH32 0x4E487B7100000000000000000000000000000000000000000000000000000000 PUSH1 0x0 MSTORE PUSH1 0x12 PUSH1 0x4 MSTORE PUSH1 0x24 PUSH1 0x0 REVERT JUMPDEST PUSH1 0x0 PUSH2 0x142B DUP3 PUSH2 0x104E JUMP JUMPDEST SWAP2 POP PUSH2 0x1436 DUP4 PUSH2 0x104E JUMP JUMPDEST SWAP3 POP DUP3 PUSH2 0x1446 JUMPI PUSH2 0x1445 PUSH2 0x13F1 JUMP JUMPDEST JUMPDEST DUP3 DUP3 DIV SWAP1 POP SWAP3 SWAP2 POP POP JUMP JUMPDEST PUSH32 0x4E6F207265776172647320746F20636C61696D00000000000000000000000000 PUSH1 0x0 DUP3 ADD MSTORE POP JUMP JUMPDEST PUSH1 0x0 PUSH2 0x1487 PUSH1 0x13 DUP4 PUSH2 0x1241 JUMP JUMPDEST SWAP2 POP PUSH2 0x1492 DUP3 PUSH2 0x1451 JUMP JUMPDEST PUSH1 0x20 DUP3 ADD SWAP1 POP SWAP2 SWAP1 POP JUMP JUMPDEST PUSH1 0x0 PUSH1 0x20 DUP3 ADD SWAP1 POP DUP2 DUP2 SUB PUSH1 0x0 DUP4 ADD MSTORE PUSH2 0x14B6 DUP2 PUSH2 0x147A JUMP JUMPDEST SWAP1 POP SWAP2 SWAP1 POP JUMP JUMPDEST PUSH1 0x0 PUSH1 0x60 DUP3 ADD SWAP1 POP PUSH2 0x14D2 PUSH1 0x0 DUP4 ADD DUP7 PUSH2 0x1166 JUMP JUMPDEST PUSH2 0x14DF PUSH1 0x20 DUP4 ADD DUP6 PUSH2 0x1166 JUMP JUMPDEST PUSH2 0x14EC PUSH1 0x40 DUP4 ADD DUP5 PUSH2 0x113C JUMP JUMPDEST SWAP5 SWAP4 POP POP POP POP JUMP JUMPDEST PUSH32 0x415052206D75737420626520706F736974697665000000000000000000000000 PUSH1 0x0 DUP3 ADD MSTORE POP JUMP JUMPDEST PUSH1 0x0 PUSH2 0x152A PUSH1 0x14 DUP4 PUSH2 0x1241 JUMP JUMPDEST SWAP2 POP PUSH2 0x1535 DUP3 PUSH2 0x14F4 JUMP JUMPDEST PUSH1 0x20 DUP3 ADD SWAP1 POP SWAP2 SWAP1 POP JUMP JUMPDEST PUSH1 0x0 PUSH1 0x20 DUP3 ADD SWAP1 POP DUP2 DUP2 SUB PUSH1 0x0 DUP4 ADD MSTORE PUSH2 0x1559 DUP2 PUSH2 0x151D JUMP JUMPDEST SWAP1 POP SWAP2 SWAP1 POP JUMP JUMPDEST PUSH1 0x0 PUSH1 0x40 DUP3 ADD SWAP1 POP PUSH2 0x1575 PUSH1 0x0 DUP4 ADD DUP6 PUSH2 0x1166 JUMP JUMPDEST PUSH2 0x1582 PUSH1 0x20 DUP4 ADD DUP5 PUSH2 0x1166 JUMP JUMPDEST SWAP4 SWAP3 POP POP POP JUMP JUMPDEST PUSH1 0x0 DUP2 MLOAD SWAP1 POP PUSH2 0x1598 DUP2 PUSH2 0x1058 JUMP JUMPDEST SWAP3 SWAP2 POP POP JUMP JUMPDEST PUSH1 0x0 PUSH1 0x20 DUP3 DUP5 SUB SLT ISZERO PUSH2 0x15B4 JUMPI PUSH2 0x15B3 PUSH2 0x1049 JUMP JUMPDEST JUMPDEST PUSH1 0x0 PUSH2 0x15C2 DUP5 DUP3 DUP6 ADD PUSH2 0x1589 JUMP JUMPDEST SWAP2 POP POP SWAP3 SWAP2 POP POP JUMP JUMPDEST PUSH32 0x496E73756666696369656E7420616C6C6F77616E636500000000000000000000 PUSH1 0x0 DUP3 ADD MSTORE POP JUMP JUMPDEST PUSH1 0x0 PUSH2 0x1601 PUSH1 0x16 DUP4 PUSH2 0x1241 JUMP JUMPDEST SWAP2 POP PUSH2 0x160C DUP3 PUSH2 0x15CB JUMP JUMPDEST PUSH1 0x20 DUP3 ADD SWAP1 POP SWAP2 SWAP1 POP JUMP JUMPDEST PUSH1 0x0 PUSH1 0x20 DUP3 ADD SWAP1 POP DUP2 DUP2 SUB PUSH1 0x0 DUP4 ADD MSTORE PUSH2 0x1630 DUP2 PUSH2 0x15F4 JUMP JUMPDEST SWAP1 POP SWAP2 SWAP1 POP JUMP JUMPDEST PUSH1 0x0 PUSH2 0x1642 DUP3 PUSH2 0x104E JUMP JUMPDEST SWAP2 POP PUSH2 0x164D DUP4 PUSH2 0x104E JUMP JUMPDEST SWAP3 POP DUP3 DUP3 ADD SWAP1 POP DUP1 DUP3 GT ISZERO PUSH2 0x1665 JUMPI PUSH2 0x1664 PUSH2 0x12BE JUMP JUMPDEST JUMPDEST SWAP3 SWAP2 POP POP JUMP JUMPDEST PUSH32 0x43616E6E6F74207374616B652030000000000000000000000000000000000000 PUSH1 0x0 DUP3 ADD MSTORE POP JUMP JUMPDEST PUSH1 0x0 PUSH2 0x16A1 PUSH1 0xE DUP4 PUSH2 0x1241 JUMP JUMPDEST SWAP2 POP PUSH2 0x16AC DUP3 PUSH2 0x166B JUMP JUMPDEST PUSH1 0x20 DUP3 ADD SWAP1 POP SWAP2 SWAP1 POP JUMP JUMPDEST PUSH1 0x0 PUSH1 0x20 DUP3 ADD SWAP1 POP DUP2 DUP2 SUB PUSH1 0x0 DUP4 ADD MSTORE PUSH2 0x16D0 DUP2 PUSH2 0x1694 JUMP JUMPDEST SWAP1 POP SWAP2 SWAP1 POP JUMP JUMPDEST PUSH32 0x4E6F7468696E6720746F20776974686472617700000000000000000000000000 PUSH1 0x0 DUP3 ADD MSTORE POP JUMP JUMPDEST PUSH1 0x0 PUSH2 0x170D PUSH1 0x13 DUP4 PUSH2 0x1241 JUMP JUMPDEST SWAP2 POP PUSH2 0x1718 DUP3 PUSH2 0x16D7 JUMP JUMPDEST PUSH1 0x20 DUP3 ADD SWAP1 POP SWAP2 SWAP1 POP JUMP JUMPDEST PUSH1 0x0 PUSH1 0x20 DUP3 ADD SWAP1 POP DUP2 DUP2 SUB PUSH1 0x0 DUP4 ADD MSTORE PUSH2 0x173C DUP2 PUSH2 0x1700 JUMP JUMPDEST SWAP1 POP SWAP2 SWAP1 POP JUMP INVALID LOG2 PUSH5 0x6970667358 0x22 SLT KECCAK256 PUSH16 0xB097D0CA6FE4EC8B305C713E9DEE54A ADDRESS 0x2B PREVRANDAO 0xE8 COINBASE DUP7 0xD6 SWAP2 0xE6 EXP 0x2B PREVRANDAO 0xA7 PUSH3 0x26473 PUSH16 0x6C634300081400330000000000000000 "},"methodIdentifiers":{"APR()":"bd30558e","claimRewards()":"372500ab","emergencyWithdraw()":"db2e21bc","fundRewards(uint256)":"93707a19","getStakedAmount(address)":"4da6a556","owner()":"8da5cb5b","pendingRewards(address)":"31d7a262","renounceOwnership()":"715018a6","rewardRate()":"7b0a47ee","rewardsWallet()":"5b35f9c9","setAPR(uint256)":"854303cf","stake(uint256)":"a694fc3a","stakers(address)":"9168ae72","stakingToken()":"72f702f3","totalEarnedRewards(address)":"9c1b49cb","totalStaked()":"817b1cd2","transferOwnership(address)":"f2fde38b","unstake(uint256)":"2e17de78"}}}}}