{
  "_format": "hh-sol-artifact-1",
  "contractName": "DynamiqToken",
  "sourceName": "contracts/dynamiq.sol",
  "abi": [
    {
      "inputs": [
        {
          "internalType": "address",
          "name": "_devWallet",
          "type": "address"
        },
        {
          "internalType": "address",
          "name": "_stakingContract",
          "type": "address"
        },
        {
          "internalType": "address",
          "name": "_marketingWallet",
          "type": "address"
        },
        {
          "internalType": "address",
          "name": "_rewardsWallet",
          "type": "address"
        },
        {
          "internalType": "address",
          "name": "_liquidityWallet",
          "type": "address"
        }
      ],
      "stateMutability": "nonpayable",
      "type": "constructor"
    },
    {
      "inputs": [
        {
          "internalType": "address",
          "name": "spender",
          "type": "address"
        },
        {
          "internalType": "uint256",
          "name": "allowance",
          "type": "uint256"
        },
        {
          "internalType": "uint256",
          "name": "needed",
          "type": "uint256"
        }
      ],
      "name": "ERC20InsufficientAllowance",
      "type": "error"
    },
    {
      "inputs": [
        {
          "internalType": "address",
          "name": "sender",
          "type": "address"
        },
        {
          "internalType": "uint256",
          "name": "balance",
          "type": "uint256"
        },
        {
          "internalType": "uint256",
          "name": "needed",
          "type": "uint256"
        }
      ],
      "name": "ERC20InsufficientBalance",
      "type": "error"
    },
    {
      "inputs": [
        {
          "internalType": "address",
          "name": "approver",
          "type": "address"
        }
      ],
      "name": "ERC20InvalidApprover",
      "type": "error"
    },
    {
      "inputs": [
        {
          "internalType": "address",
          "name": "receiver",
          "type": "address"
        }
      ],
      "name": "ERC20InvalidReceiver",
      "type": "error"
    },
    {
      "inputs": [
        {
          "internalType": "address",
          "name": "sender",
          "type": "address"
        }
      ],
      "name": "ERC20InvalidSender",
      "type": "error"
    },
    {
      "inputs": [
        {
          "internalType": "address",
          "name": "spender",
          "type": "address"
        }
      ],
      "name": "ERC20InvalidSpender",
      "type": "error"
    },
    {
      "inputs": [
        {
          "internalType": "address",
          "name": "owner",
          "type": "address"
        }
      ],
      "name": "OwnableInvalidOwner",
      "type": "error"
    },
    {
      "inputs": [
        {
          "internalType": "address",
          "name": "account",
          "type": "address"
        }
      ],
      "name": "OwnableUnauthorizedAccount",
      "type": "error"
    },
    {
      "anonymous": false,
      "inputs": [
        {
          "indexed": true,
          "internalType": "address",
          "name": "owner",
          "type": "address"
        },
        {
          "indexed": true,
          "internalType": "address",
          "name": "spender",
          "type": "address"
        },
        {
          "indexed": false,
          "internalType": "uint256",
          "name": "value",
          "type": "uint256"
        }
      ],
      "name": "Approval",
      "type": "event"
    },
    {
      "anonymous": false,
      "inputs": [
        {
          "indexed": true,
          "internalType": "address",
          "name": "user",
          "type": "address"
        },
        {
          "indexed": false,
          "internalType": "uint256",
          "name": "amount",
          "type": "uint256"
        }
      ],
      "name": "AutoStaked",
      "type": "event"
    },
    {
      "anonymous": false,
      "inputs": [
        {
          "indexed": true,
          "internalType": "address",
          "name": "devWallet",
          "type": "address"
        },
        {
          "indexed": false,
          "internalType": "uint256",
          "name": "amount",
          "type": "uint256"
        }
      ],
      "name": "DevTokensReleased",
      "type": "event"
    },
    {
      "anonymous": false,
      "inputs": [
        {
          "indexed": true,
          "internalType": "address",
          "name": "previousOwner",
          "type": "address"
        },
        {
          "indexed": true,
          "internalType": "address",
          "name": "newOwner",
          "type": "address"
        }
      ],
      "name": "OwnershipTransferred",
      "type": "event"
    },
    {
      "anonymous": false,
      "inputs": [
        {
          "indexed": true,
          "internalType": "address",
          "name": "newStakingContract",
          "type": "address"
        }
      ],
      "name": "StakingContractUpdated",
      "type": "event"
    },
    {
      "anonymous": false,
      "inputs": [
        {
          "indexed": true,
          "internalType": "address",
          "name": "from",
          "type": "address"
        },
        {
          "indexed": true,
          "internalType": "address",
          "name": "to",
          "type": "address"
        },
        {
          "indexed": false,
          "internalType": "uint256",
          "name": "value",
          "type": "uint256"
        }
      ],
      "name": "Transfer",
      "type": "event"
    },
    {
      "inputs": [],
      "name": "AUTO_STAKE_BPS",
      "outputs": [
        {
          "internalType": "uint256",
          "name": "",
          "type": "uint256"
        }
      ],
      "stateMutability": "view",
      "type": "function"
    },
    {
      "inputs": [],
      "name": "TOTAL_SUPPLY",
      "outputs": [
        {
          "internalType": "uint256",
          "name": "",
          "type": "uint256"
        }
      ],
      "stateMutability": "view",
      "type": "function"
    },
    {
      "inputs": [
        {
          "internalType": "address",
          "name": "owner",
          "type": "address"
        },
        {
          "internalType": "address",
          "name": "spender",
          "type": "address"
        }
      ],
      "name": "allowance",
      "outputs": [
        {
          "internalType": "uint256",
          "name": "",
          "type": "uint256"
        }
      ],
      "stateMutability": "view",
      "type": "function"
    },
    {
      "inputs": [
        {
          "internalType": "address",
          "name": "spender",
          "type": "address"
        },
        {
          "internalType": "uint256",
          "name": "value",
          "type": "uint256"
        }
      ],
      "name": "approve",
      "outputs": [
        {
          "internalType": "bool",
          "name": "",
          "type": "bool"
        }
      ],
      "stateMutability": "nonpayable",
      "type": "function"
    },
    {
      "inputs": [],
      "name": "approveStakingContract",
      "outputs": [],
      "stateMutability": "nonpayable",
      "type": "function"
    },
    {
      "inputs": [
        {
          "internalType": "address",
          "name": "account",
          "type": "address"
        }
      ],
      "name": "balanceOf",
      "outputs": [
        {
          "internalType": "uint256",
          "name": "",
          "type": "uint256"
        }
      ],
      "stateMutability": "view",
      "type": "function"
    },
    {
      "inputs": [],
      "name": "decimals",
      "outputs": [
        {
          "internalType": "uint8",
          "name": "",
          "type": "uint8"
        }
      ],
      "stateMutability": "view",
      "type": "function"
    },
    {
      "inputs": [],
      "name": "devReleasedPercentage",
      "outputs": [
        {
          "internalType": "uint256",
          "name": "",
          "type": "uint256"
        }
      ],
      "stateMutability": "view",
      "type": "function"
    },
    {
      "inputs": [],
      "name": "devUnlockTime",
      "outputs": [
        {
          "internalType": "uint256",
          "name": "",
          "type": "uint256"
        }
      ],
      "stateMutability": "view",
      "type": "function"
    },
    {
      "inputs": [],
      "name": "devWallet",
      "outputs": [
        {
          "internalType": "address",
          "name": "",
          "type": "address"
        }
      ],
      "stateMutability": "view",
      "type": "function"
    },
    {
      "inputs": [],
      "name": "liquidityWallet",
      "outputs": [
        {
          "internalType": "address",
          "name": "",
          "type": "address"
        }
      ],
      "stateMutability": "view",
      "type": "function"
    },
    {
      "inputs": [],
      "name": "marketingWallet",
      "outputs": [
        {
          "internalType": "address",
          "name": "",
          "type": "address"
        }
      ],
      "stateMutability": "view",
      "type": "function"
    },
    {
      "inputs": [],
      "name": "name",
      "outputs": [
        {
          "internalType": "string",
          "name": "",
          "type": "string"
        }
      ],
      "stateMutability": "view",
      "type": "function"
    },
    {
      "inputs": [],
      "name": "owner",
      "outputs": [
        {
          "internalType": "address",
          "name": "",
          "type": "address"
        }
      ],
      "stateMutability": "view",
      "type": "function"
    },
    {
      "inputs": [],
      "name": "releaseDevTokens",
      "outputs": [],
      "stateMutability": "nonpayable",
      "type": "function"
    },
    {
      "inputs": [],
      "name": "renounceOwnership",
      "outputs": [],
      "stateMutability": "nonpayable",
      "type": "function"
    },
    {
      "inputs": [],
      "name": "rewardsWallet",
      "outputs": [
        {
          "internalType": "address",
          "name": "",
          "type": "address"
        }
      ],
      "stateMutability": "view",
      "type": "function"
    },
    {
      "inputs": [
        {
          "internalType": "address",
          "name": "_stakingContract",
          "type": "address"
        }
      ],
      "name": "setStakingContract",
      "outputs": [],
      "stateMutability": "nonpayable",
      "type": "function"
    },
    {
      "inputs": [],
      "name": "stakingContract",
      "outputs": [
        {
          "internalType": "address",
          "name": "",
          "type": "address"
        }
      ],
      "stateMutability": "view",
      "type": "function"
    },
    {
      "inputs": [],
      "name": "symbol",
      "outputs": [
        {
          "internalType": "string",
          "name": "",
          "type": "string"
        }
      ],
      "stateMutability": "view",
      "type": "function"
    },
    {
      "inputs": [],
      "name": "totalSupply",
      "outputs": [
        {
          "internalType": "uint256",
          "name": "",
          "type": "uint256"
        }
      ],
      "stateMutability": "view",
      "type": "function"
    },
    {
      "inputs": [
        {
          "internalType": "address",
          "name": "recipient",
          "type": "address"
        },
        {
          "internalType": "uint256",
          "name": "amount",
          "type": "uint256"
        }
      ],
      "name": "transfer",
      "outputs": [
        {
          "internalType": "bool",
          "name": "",
          "type": "bool"
        }
      ],
      "stateMutability": "nonpayable",
      "type": "function"
    },
    {
      "inputs": [
        {
          "internalType": "address",
          "name": "sender",
          "type": "address"
        },
        {
          "internalType": "address",
          "name": "recipient",
          "type": "address"
        },
        {
          "internalType": "uint256",
          "name": "amount",
          "type": "uint256"
        }
      ],
      "name": "transferFrom",
      "outputs": [
        {
          "internalType": "bool",
          "name": "",
          "type": "bool"
        }
      ],
      "stateMutability": "nonpayable",
      "type": "function"
    },
    {
      "inputs": [
        {
          "internalType": "address",
          "name": "newOwner",
          "type": "address"
        }
      ],
      "name": "transferOwnership",
      "outputs": [],
      "stateMutability": "nonpayable",
      "type": "function"
    }
  ],
  "bytecode": "0x6101006040523480156200001257600080fd5b5060405162002d9638038062002d96833981810160405281019062000038919062000768565b336040518060400160405280600781526020017f44796e616d6971000000000000000000000000000000000000000000000000008152506040518060400160405280600381526020017f444d5100000000000000000000000000000000000000000000000000000000008152508160039081620000b6919062000a6a565b508060049081620000c8919062000a6a565b505050600073ffffffffffffffffffffffffffffffffffffffff168173ffffffffffffffffffffffffffffffffffffffff1603620001405760006040517f1e4fbdf700000000000000000000000000000000000000000000000000000000815260040162000137919062000b62565b60405180910390fd5b62000151816200037b60201b60201c565b508473ffffffffffffffffffffffffffffffffffffffff1660c08173ffffffffffffffffffffffffffffffffffffffff168152505083600660006101000a81548173ffffffffffffffffffffffffffffffffffffffff021916908373ffffffffffffffffffffffffffffffffffffffff1602179055508273ffffffffffffffffffffffffffffffffffffffff1660a08173ffffffffffffffffffffffffffffffffffffffff16815250508173ffffffffffffffffffffffffffffffffffffffff1660808173ffffffffffffffffffffffffffffffffffffffff16815250508073ffffffffffffffffffffffffffffffffffffffff1660e08173ffffffffffffffffffffffffffffffffffffffff168152505062ed4e004262000274919062000bae565b6007819055506000600881905550620002be608051606460286b033b2e3c9fd0803ce8000000620002a6919062000be9565b620002b2919062000c63565b6200044160201b60201c565b620002fa60a051606460146b033b2e3c9fd0803ce8000000620002e2919062000be9565b620002ee919062000c63565b6200044160201b60201c565b62000334306064600f6b033b2e3c9fd0803ce80000006200031c919062000be9565b62000328919062000c63565b6200044160201b60201c565b6200037060e051606460196b033b2e3c9fd0803ce800000062000358919062000be9565b62000364919062000c63565b6200044160201b60201c565b505050505062000d06565b6000600560009054906101000a900473ffffffffffffffffffffffffffffffffffffffff16905081600560006101000a81548173ffffffffffffffffffffffffffffffffffffffff021916908373ffffffffffffffffffffffffffffffffffffffff1602179055508173ffffffffffffffffffffffffffffffffffffffff168173ffffffffffffffffffffffffffffffffffffffff167f8be0079c531659141344cd1fd0a4f28419497f9722a3daafe3b4186f6b6457e060405160405180910390a35050565b600073ffffffffffffffffffffffffffffffffffffffff168273ffffffffffffffffffffffffffffffffffffffff1603620004b65760006040517fec442f05000000000000000000000000000000000000000000000000000000008152600401620004ad919062000b62565b60405180910390fd5b620004ca60008383620004ce60201b60201c565b5050565b600073ffffffffffffffffffffffffffffffffffffffff168373ffffffffffffffffffffffffffffffffffffffff16036200052457806002600082825462000517919062000bae565b92505081905550620005fa565b60008060008573ffffffffffffffffffffffffffffffffffffffff1673ffffffffffffffffffffffffffffffffffffffff16815260200190815260200160002054905081811015620005b3578381836040517fe450d38c000000000000000000000000000000000000000000000000000000008152600401620005aa9392919062000cac565b60405180910390fd5b8181036000808673ffffffffffffffffffffffffffffffffffffffff1673ffffffffffffffffffffffffffffffffffffffff16815260200190815260200160002081905550505b600073ffffffffffffffffffffffffffffffffffffffff168273ffffffffffffffffffffffffffffffffffffffff160362000645578060026000828254039250508190555062000692565b806000808473ffffffffffffffffffffffffffffffffffffffff1673ffffffffffffffffffffffffffffffffffffffff168152602001908152602001600020600082825401925050819055505b8173ffffffffffffffffffffffffffffffffffffffff168373ffffffffffffffffffffffffffffffffffffffff167fddf252ad1be2c89b69c2b068fc378daa952ba7f163c4a11628f55a4df523b3ef83604051620006f1919062000ce9565b60405180910390a3505050565b600080fd5b600073ffffffffffffffffffffffffffffffffffffffff82169050919050565b6000620007308262000703565b9050919050565b620007428162000723565b81146200074e57600080fd5b50565b600081519050620007628162000737565b92915050565b600080600080600060a08688031215620007875762000786620006fe565b5b6000620007978882890162000751565b9550506020620007aa8882890162000751565b9450506040620007bd8882890162000751565b9350506060620007d08882890162000751565b9250506080620007e38882890162000751565b9150509295509295909350565b600081519050919050565b7f4e487b7100000000000000000000000000000000000000000000000000000000600052604160045260246000fd5b7f4e487b7100000000000000000000000000000000000000000000000000000000600052602260045260246000fd5b600060028204905060018216806200087257607f821691505b6020821081036200088857620008876200082a565b5b50919050565b60008190508160005260206000209050919050565b60006020601f8301049050919050565b600082821b905092915050565b600060088302620008f27fffffffffffffffffffffffffffffffffffffffffffffffffffffffffffffffff82620008b3565b620008fe8683620008b3565b95508019841693508086168417925050509392505050565b6000819050919050565b6000819050919050565b60006200094b620009456200093f8462000916565b62000920565b62000916565b9050919050565b6000819050919050565b62000967836200092a565b6200097f620009768262000952565b848454620008c0565b825550505050565b600090565b6200099662000987565b620009a38184846200095c565b505050565b5b81811015620009cb57620009bf6000826200098c565b600181019050620009a9565b5050565b601f82111562000a1a57620009e4816200088e565b620009ef84620008a3565b81016020851015620009ff578190505b62000a1762000a0e85620008a3565b830182620009a8565b50505b505050565b600082821c905092915050565b600062000a3f6000198460080262000a1f565b1980831691505092915050565b600062000a5a838362000a2c565b9150826002028217905092915050565b62000a7582620007f0565b67ffffffffffffffff81111562000a915762000a90620007fb565b5b62000a9d825462000859565b62000aaa828285620009cf565b600060209050601f83116001811462000ae2576000841562000acd578287015190505b62000ad9858262000a4c565b86555062000b49565b601f19841662000af2866200088e565b60005b8281101562000b1c5784890151825560018201915060208501945060208101905062000af5565b8683101562000b3c578489015162000b38601f89168262000a2c565b8355505b6001600288020188555050505b505050505050565b62000b5c8162000723565b82525050565b600060208201905062000b79600083018462000b51565b92915050565b7f4e487b7100000000000000000000000000000000000000000000000000000000600052601160045260246000fd5b600062000bbb8262000916565b915062000bc88362000916565b925082820190508082111562000be35762000be262000b7f565b5b92915050565b600062000bf68262000916565b915062000c038362000916565b925082820262000c138162000916565b9150828204841483151762000c2d5762000c2c62000b7f565b5b5092915050565b7f4e487b7100000000000000000000000000000000000000000000000000000000600052601260045260246000fd5b600062000c708262000916565b915062000c7d8362000916565b92508262000c905762000c8f62000c34565b5b828204905092915050565b62000ca68162000916565b82525050565b600060608201905062000cc3600083018662000b51565b62000cd2602083018562000c9b565b62000ce1604083018462000c9b565b949350505050565b600060208201905062000d00600083018462000c9b565b92915050565b60805160a05160c05160e05161201062000d866000396000610e980152600081816106a2015281816108040152818161086101526108fd0152600061067e0152600081816105f801528181610bb501528181610cbf01528181610d0901528181610d9b01528181610e2c0152818161107901526110bc01526120106000f3fe608060405234801561001057600080fd5b50600436106101585760003560e01c80638da5cb5b116100c3578063a9059cbb1161007c578063a9059cbb14610385578063be65073d146103b5578063d4698016146103bf578063dd62ed3e146103dd578063ee99205c1461040d578063f2fde38b1461042b57610158565b80638da5cb5b146102d35780638ea5220f146102f1578063902d55a51461030f57806395d89b411461032d5780639c0234f41461034b5780639dd373b91461036957610158565b80635b35f9c9116101155780635b35f9c9146102355780636f418b531461025357806370a0823114610271578063715018a6146102a157806375f0a874146102ab5780638b41693d146102c957610158565b806306fdde031461015d578063095ea7b31461017b57806312b23521146101ab57806318160ddd146101c957806323b872dd146101e7578063313ce56714610217575b600080fd5b610165610447565b60405161017291906118ba565b60405180910390f35b61019560048036038101906101909190611975565b6104d9565b6040516101a291906119d0565b60405180910390f35b6101b36104fc565b6040516101c091906119fa565b60405180910390f35b6101d1610502565b6040516101de91906119fa565b60405180910390f35b61020160048036038101906101fc9190611a15565b61050c565b60405161020e91906119d0565b60405180910390f35b61021f6105ed565b60405161022c9190611a84565b60405180910390f35b61023d6105f6565b60405161024a9190611aae565b60405180910390f35b61025b61061a565b60405161026891906119fa565b60405180910390f35b61028b60048036038101906102869190611ac9565b610620565b60405161029891906119fa565b60405180910390f35b6102a9610668565b005b6102b361067c565b6040516102c09190611aae565b60405180910390f35b6102d16106a0565b005b6102db6108d1565b6040516102e89190611aae565b60405180910390f35b6102f96108fb565b6040516103069190611aae565b60405180910390f35b61031761091f565b60405161032491906119fa565b60405180910390f35b61033561092f565b60405161034291906118ba565b60405180910390f35b6103536109c1565b60405161036091906119fa565b60405180910390f35b610383600480360381019061037e9190611ac9565b6109c6565b005b61039f600480360381019061039a9190611975565b610ac4565b6040516103ac91906119d0565b60405180910390f35b6103bd610d99565b005b6103c7610e96565b6040516103d49190611aae565b60405180910390f35b6103f760048036038101906103f29190611af6565b610eba565b60405161040491906119fa565b60405180910390f35b610415610f41565b6040516104229190611aae565b60405180910390f35b61044560048036038101906104409190611ac9565b610f67565b005b60606003805461045690611b65565b80601f016020809104026020016040519081016040528092919081815260200182805461048290611b65565b80156104cf5780601f106104a4576101008083540402835291602001916104cf565b820191906000526020600020905b8154815290600101906020018083116104b257829003601f168201915b5050505050905090565b6000806104e4610fed565b90506104f1818585610ff5565b600191505092915050565b60085481565b6000600254905090565b6000600660009054906101000a900473ffffffffffffffffffffffffffffffffffffffff1673ffffffffffffffffffffffffffffffffffffffff168473ffffffffffffffffffffffffffffffffffffffff1614806105b75750600660009054906101000a900473ffffffffffffffffffffffffffffffffffffffff1673ffffffffffffffffffffffffffffffffffffffff168373ffffffffffffffffffffffffffffffffffffffff16145b156105ce576105c7848484611007565b90506105e6565b6105d88483611036565b6105e3848484611007565b90505b9392505050565b60006012905090565b7f000000000000000000000000000000000000000000000000000000000000000081565b60075481565b60008060008373ffffffffffffffffffffffffffffffffffffffff1673ffffffffffffffffffffffffffffffffffffffff168152602001908152602001600020549050919050565b610670611135565b61067a60006111bc565b565b7f000000000000000000000000000000000000000000000000000000000000000081565b7f000000000000000000000000000000000000000000000000000000000000000073ffffffffffffffffffffffffffffffffffffffff163373ffffffffffffffffffffffffffffffffffffffff161461072e576040517f08c379a000000000000000000000000000000000000000000000000000000000815260040161072590611c08565b60405180910390fd5b600754421015610773576040517f08c379a000000000000000000000000000000000000000000000000000000000815260040161076a90611c74565b60405180910390fd5b6064600854106107b8576040517f08c379a00000000000000000000000000000000000000000000000000000000081526004016107af90611d06565b60405180910390fd5b60006064600f6b033b2e3c9fd0803ce80000006107d59190611d55565b6107df9190611dc6565b905060006064600a836107f29190611d55565b6107fc9190611dc6565b9050610829307f000000000000000000000000000000000000000000000000000000000000000083611282565b600a6008600082825461083c9190611df7565b9250508190555062278d00600760008282546108589190611df7565b925050819055507f000000000000000000000000000000000000000000000000000000000000000073ffffffffffffffffffffffffffffffffffffffff167f0968489ab8b455ed8aa411fc756c3a58a20c10b58b2f8b943ccef9c25fa1343d826040516108c591906119fa565b60405180910390a25050565b6000600560009054906101000a900473ffffffffffffffffffffffffffffffffffffffff16905090565b7f000000000000000000000000000000000000000000000000000000000000000081565b6b033b2e3c9fd0803ce800000081565b60606004805461093e90611b65565b80601f016020809104026020016040519081016040528092919081815260200182805461096a90611b65565b80156109b75780601f1061098c576101008083540402835291602001916109b7565b820191906000526020600020905b81548152906001019060200180831161099a57829003601f168201915b5050505050905090565b603281565b6109ce611135565b600073ffffffffffffffffffffffffffffffffffffffff168173ffffffffffffffffffffffffffffffffffffffff1603610a3d576040517f08c379a0000000000000000000000000000000000000000000000000000000008152600401610a3490611e77565b60405180910390fd5b80600660006101000a81548173ffffffffffffffffffffffffffffffffffffffff021916908373ffffffffffffffffffffffffffffffffffffffff1602179055508073ffffffffffffffffffffffffffffffffffffffff167f6397f5b135542bb3f477cb346cfab5abdec1251d08dc8f8d4efb4ffe122ea0bf60405160405180910390a250565b6000600660009054906101000a900473ffffffffffffffffffffffffffffffffffffffff1673ffffffffffffffffffffffffffffffffffffffff163373ffffffffffffffffffffffffffffffffffffffff161480610b6f5750600660009054906101000a900473ffffffffffffffffffffffffffffffffffffffff1673ffffffffffffffffffffffffffffffffffffffff168373ffffffffffffffffffffffffffffffffffffffff16145b15610b8557610b7e8383611376565b9050610d93565b6000612710603284610b979190611d55565b610ba19190611dc6565b905060008184610bb19190611e97565b90507f000000000000000000000000000000000000000000000000000000000000000073ffffffffffffffffffffffffffffffffffffffff163373ffffffffffffffffffffffffffffffffffffffff16141580610c5b5750600660009054906101000a900473ffffffffffffffffffffffffffffffffffffffff1673ffffffffffffffffffffffffffffffffffffffff168573ffffffffffffffffffffffffffffffffffffffff16145b610c9a576040517f08c379a0000000000000000000000000000000000000000000000000000000008152600401610c9190611f17565b60405180910390fd5b600082118015610cf75750600073ffffffffffffffffffffffffffffffffffffffff167f000000000000000000000000000000000000000000000000000000000000000073ffffffffffffffffffffffffffffffffffffffff1614155b15610d8457610d2e610d07610fed565b7f000000000000000000000000000000000000000000000000000000000000000084611282565b610d36610fed565b73ffffffffffffffffffffffffffffffffffffffff167f8b6a7ffa09b05b8c7f1a46edcd7c600fd3b5b3a8a531910c3cd681471c14043983604051610d7b91906119fa565b60405180910390a25b610d8e8582611376565b925050505b92915050565b7f000000000000000000000000000000000000000000000000000000000000000073ffffffffffffffffffffffffffffffffffffffff163373ffffffffffffffffffffffffffffffffffffffff1614610e27576040517f08c379a0000000000000000000000000000000000000000000000000000000008152600401610e1e90611f83565b60405180910390fd5b610e947f0000000000000000000000000000000000000000000000000000000000000000600660009054906101000a900473ffffffffffffffffffffffffffffffffffffffff167fffffffffffffffffffffffffffffffffffffffffffffffffffffffffffffffff610ff5565b565b7f000000000000000000000000000000000000000000000000000000000000000081565b6000600160008473ffffffffffffffffffffffffffffffffffffffff1673ffffffffffffffffffffffffffffffffffffffff16815260200190815260200160002060008373ffffffffffffffffffffffffffffffffffffffff1673ffffffffffffffffffffffffffffffffffffffff16815260200190815260200160002054905092915050565b600660009054906101000a900473ffffffffffffffffffffffffffffffffffffffff1681565b610f6f611135565b600073ffffffffffffffffffffffffffffffffffffffff168173ffffffffffffffffffffffffffffffffffffffff1603610fe15760006040517f1e4fbdf7000000000000000000000000000000000000000000000000000000008152600401610fd89190611aae565b60405180910390fd5b610fea816111bc565b50565b600033905090565b6110028383836001611399565b505050565b600080611012610fed565b905061101f858285611570565b61102a858585611282565b60019150509392505050565b60006127106032836110489190611d55565b6110529190611dc6565b90506000811180156110b15750600073ffffffffffffffffffffffffffffffffffffffff167f000000000000000000000000000000000000000000000000000000000000000073ffffffffffffffffffffffffffffffffffffffff1614155b15611130576110e1837f000000000000000000000000000000000000000000000000000000000000000083611282565b8273ffffffffffffffffffffffffffffffffffffffff167f8b6a7ffa09b05b8c7f1a46edcd7c600fd3b5b3a8a531910c3cd681471c1404398260405161112791906119fa565b60405180910390a25b505050565b61113d610fed565b73ffffffffffffffffffffffffffffffffffffffff1661115b6108d1565b73ffffffffffffffffffffffffffffffffffffffff16146111ba5761117e610fed565b6040517f118cdaa70000000000000000000000000000000000000000000000000000000081526004016111b19190611aae565b60405180910390fd5b565b6000600560009054906101000a900473ffffffffffffffffffffffffffffffffffffffff16905081600560006101000a81548173ffffffffffffffffffffffffffffffffffffffff021916908373ffffffffffffffffffffffffffffffffffffffff1602179055508173ffffffffffffffffffffffffffffffffffffffff168173ffffffffffffffffffffffffffffffffffffffff167f8be0079c531659141344cd1fd0a4f28419497f9722a3daafe3b4186f6b6457e060405160405180910390a35050565b600073ffffffffffffffffffffffffffffffffffffffff168373ffffffffffffffffffffffffffffffffffffffff16036112f45760006040517f96c6fd1e0000000000000000000000000000000000000000000000000000000081526004016112eb9190611aae565b60405180910390fd5b600073ffffffffffffffffffffffffffffffffffffffff168273ffffffffffffffffffffffffffffffffffffffff16036113665760006040517fec442f0500000000000000000000000000000000000000000000000000000000815260040161135d9190611aae565b60405180910390fd5b611371838383611605565b505050565b600080611381610fed565b905061138e818585611282565b600191505092915050565b600073ffffffffffffffffffffffffffffffffffffffff168473ffffffffffffffffffffffffffffffffffffffff160361140b5760006040517fe602df050000000000000000000000000000000000000000000000000000000081526004016114029190611aae565b60405180910390fd5b600073ffffffffffffffffffffffffffffffffffffffff168373ffffffffffffffffffffffffffffffffffffffff160361147d5760006040517f94280d620000000000000000000000000000000000000000000000000000000081526004016114749190611aae565b60405180910390fd5b81600160008673ffffffffffffffffffffffffffffffffffffffff1673ffffffffffffffffffffffffffffffffffffffff16815260200190815260200160002060008573ffffffffffffffffffffffffffffffffffffffff1673ffffffffffffffffffffffffffffffffffffffff16815260200190815260200160002081905550801561156a578273ffffffffffffffffffffffffffffffffffffffff168473ffffffffffffffffffffffffffffffffffffffff167f8c5be1e5ebec7d5bd14f71427d1e84f3dd0314c0f7b2291e5b200ac8c7c3b9258460405161156191906119fa565b60405180910390a35b50505050565b600061157c8484610eba565b90507fffffffffffffffffffffffffffffffffffffffffffffffffffffffffffffffff8110156115ff57818110156115ef578281836040517ffb8f41b20000000000000000000000000000000000000000000000000000000081526004016115e693929190611fa3565b60405180910390fd5b6115fe84848484036000611399565b5b50505050565b600073ffffffffffffffffffffffffffffffffffffffff168373ffffffffffffffffffffffffffffffffffffffff160361165757806002600082825461164b9190611df7565b9250508190555061172a565b60008060008573ffffffffffffffffffffffffffffffffffffffff1673ffffffffffffffffffffffffffffffffffffffff168152602001908152602001600020549050818110156116e3578381836040517fe450d38c0000000000000000000000000000000000000000000000000000000081526004016116da93929190611fa3565b60405180910390fd5b8181036000808673ffffffffffffffffffffffffffffffffffffffff1673ffffffffffffffffffffffffffffffffffffffff16815260200190815260200160002081905550505b600073ffffffffffffffffffffffffffffffffffffffff168273ffffffffffffffffffffffffffffffffffffffff160361177357806002600082825403925050819055506117c0565b806000808473ffffffffffffffffffffffffffffffffffffffff1673ffffffffffffffffffffffffffffffffffffffff168152602001908152602001600020600082825401925050819055505b8173ffffffffffffffffffffffffffffffffffffffff168373ffffffffffffffffffffffffffffffffffffffff167fddf252ad1be2c89b69c2b068fc378daa952ba7f163c4a11628f55a4df523b3ef8360405161181d91906119fa565b60405180910390a3505050565b600081519050919050565b600082825260208201905092915050565b60005b83811015611864578082015181840152602081019050611849565b60008484015250505050565b6000601f19601f8301169050919050565b600061188c8261182a565b6118968185611835565b93506118a6818560208601611846565b6118af81611870565b840191505092915050565b600060208201905081810360008301526118d48184611881565b905092915050565b600080fd5b600073ffffffffffffffffffffffffffffffffffffffff82169050919050565b600061190c826118e1565b9050919050565b61191c81611901565b811461192757600080fd5b50565b60008135905061193981611913565b92915050565b6000819050919050565b6119528161193f565b811461195d57600080fd5b50565b60008135905061196f81611949565b92915050565b6000806040838503121561198c5761198b6118dc565b5b600061199a8582860161192a565b92505060206119ab85828601611960565b9150509250929050565b60008115159050919050565b6119ca816119b5565b82525050565b60006020820190506119e560008301846119c1565b92915050565b6119f48161193f565b82525050565b6000602082019050611a0f60008301846119eb565b92915050565b600080600060608486031215611a2e57611a2d6118dc565b5b6000611a3c8682870161192a565b9350506020611a4d8682870161192a565b9250506040611a5e86828701611960565b9150509250925092565b600060ff82169050919050565b611a7e81611a68565b82525050565b6000602082019050611a996000830184611a75565b92915050565b611aa881611901565b82525050565b6000602082019050611ac36000830184611a9f565b92915050565b600060208284031215611adf57611ade6118dc565b5b6000611aed8482850161192a565b91505092915050565b60008060408385031215611b0d57611b0c6118dc565b5b6000611b1b8582860161192a565b9250506020611b2c8582860161192a565b9150509250929050565b7f4e487b7100000000000000000000000000000000000000000000000000000000600052602260045260246000fd5b60006002820490506001821680611b7d57607f821691505b602082108103611b9057611b8f611b36565b5b50919050565b7f4f6e6c79206465762077616c6c65742063616e2072656c6561736520746f6b6560008201527f6e73000000000000000000000000000000000000000000000000000000000000602082015250565b6000611bf2602283611835565b9150611bfd82611b96565b604082019050919050565b60006020820190508181036000830152611c2181611be5565b9050919050565b7f44657620746f6b656e7320617265207374696c6c206c6f636b65640000000000600082015250565b6000611c5e601b83611835565b9150611c6982611c28565b602082019050919050565b60006020820190508181036000830152611c8d81611c51565b9050919050565b7f416c6c2064657620746f6b656e732068617665206265656e2072656c6561736560008201527f6400000000000000000000000000000000000000000000000000000000000000602082015250565b6000611cf0602183611835565b9150611cfb82611c94565b604082019050919050565b60006020820190508181036000830152611d1f81611ce3565b9050919050565b7f4e487b7100000000000000000000000000000000000000000000000000000000600052601160045260246000fd5b6000611d608261193f565b9150611d6b8361193f565b9250828202611d798161193f565b91508282048414831517611d9057611d8f611d26565b5b5092915050565b7f4e487b7100000000000000000000000000000000000000000000000000000000600052601260045260246000fd5b6000611dd18261193f565b9150611ddc8361193f565b925082611dec57611deb611d97565b5b828204905092915050565b6000611e028261193f565b9150611e0d8361193f565b9250828201905080821115611e2557611e24611d26565b5b92915050565b7f496e76616c6964207374616b696e6720636f6e74726163742061646472657373600082015250565b6000611e61602083611835565b9150611e6c82611e2b565b602082019050919050565b60006020820190508181036000830152611e9081611e54565b9050919050565b6000611ea28261193f565b9150611ead8361193f565b9250828203905081811115611ec557611ec4611d26565b5b92915050565b7f52657761726473206c6f636b6564000000000000000000000000000000000000600082015250565b6000611f01600e83611835565b9150611f0c82611ecb565b602082019050919050565b60006020820190508181036000830152611f3081611ef4565b9050919050565b7f4f6e6c7920726577617264732077616c6c65742063616e20617070726f766500600082015250565b6000611f6d601f83611835565b9150611f7882611f37565b602082019050919050565b60006020820190508181036000830152611f9c81611f60565b9050919050565b6000606082019050611fb86000830186611a9f565b611fc560208301856119eb565b611fd260408301846119eb565b94935050505056fea26469706673582212208f90b92c87945468583a9857f0dc9d2f0dda7f88dccca1baf533c450515b8db264736f6c63430008140033",
  "linkReferences": {},
  "deployedLinkReferences": {}
}