{
  "_format": "hh-sol-artifact-1",
  "contractName": "Staking",
  "sourceName": "contracts/staking.sol",
  "abi": [
    {
      "inputs": [
        {
          "internalType": "address",
          "name": "_stakingToken",
          "type": "address"
        },
        {
          "internalType": "address",
          "name": "_rewardsWallet",
          "type": "address"
        }
      ],
      "stateMutability": "nonpayable",
      "type": "constructor"
    },
    {
      "inputs": [
        {
          "internalType": "address",
          "name": "owner",
          "type": "address"
        }
      ],
      "name": "OwnableInvalidOwner",
      "type": "error"
    },
    {
      "inputs": [
        {
          "internalType": "address",
          "name": "account",
          "type": "address"
        }
      ],
      "name": "OwnableUnauthorizedAccount",
      "type": "error"
    },
    {
      "anonymous": false,
      "inputs": [
        {
          "indexed": true,
          "internalType": "address",
          "name": "previousOwner",
          "type": "address"
        },
        {
          "indexed": true,
          "internalType": "address",
          "name": "newOwner",
          "type": "address"
        }
      ],
      "name": "OwnershipTransferred",
      "type": "event"
    },
    {
      "anonymous": false,
      "inputs": [
        {
          "indexed": true,
          "internalType": "address",
          "name": "user",
          "type": "address"
        },
        {
          "indexed": false,
          "internalType": "uint256",
          "name": "amount",
          "type": "uint256"
        }
      ],
      "name": "RewardsClaimed",
      "type": "event"
    },
    {
      "anonymous": false,
      "inputs": [
        {
          "indexed": true,
          "internalType": "address",
          "name": "user",
          "type": "address"
        },
        {
          "indexed": false,
          "internalType": "uint256",
          "name": "amount",
          "type": "uint256"
        }
      ],
      "name": "Staked",
      "type": "event"
    },
    {
      "anonymous": false,
      "inputs": [
        {
          "indexed": true,
          "internalType": "address",
          "name": "user",
          "type": "address"
        },
        {
          "indexed": false,
          "internalType": "uint256",
          "name": "amount",
          "type": "uint256"
        }
      ],
      "name": "Unstaked",
      "type": "event"
    },
    {
      "inputs": [],
      "name": "APR",
      "outputs": [
        {
          "internalType": "uint256",
          "name": "",
          "type": "uint256"
        }
      ],
      "stateMutability": "view",
      "type": "function"
    },
    {
      "inputs": [],
      "name": "claimRewards",
      "outputs": [],
      "stateMutability": "nonpayable",
      "type": "function"
    },
    {
      "inputs": [],
      "name": "emergencyWithdraw",
      "outputs": [],
      "stateMutability": "nonpayable",
      "type": "function"
    },
    {
      "inputs": [
        {
          "internalType": "uint256",
          "name": "amount",
          "type": "uint256"
        }
      ],
      "name": "fundRewards",
      "outputs": [],
      "stateMutability": "nonpayable",
      "type": "function"
    },
    {
      "inputs": [
        {
          "internalType": "address",
          "name": "user",
          "type": "address"
        }
      ],
      "name": "getStakedAmount",
      "outputs": [
        {
          "internalType": "uint256",
          "name": "",
          "type": "uint256"
        }
      ],
      "stateMutability": "view",
      "type": "function"
    },
    {
      "inputs": [],
      "name": "owner",
      "outputs": [
        {
          "internalType": "address",
          "name": "",
          "type": "address"
        }
      ],
      "stateMutability": "view",
      "type": "function"
    },
    {
      "inputs": [
        {
          "internalType": "address",
          "name": "user",
          "type": "address"
        }
      ],
      "name": "pendingRewards",
      "outputs": [
        {
          "internalType": "uint256",
          "name": "",
          "type": "uint256"
        }
      ],
      "stateMutability": "view",
      "type": "function"
    },
    {
      "inputs": [],
      "name": "renounceOwnership",
      "outputs": [],
      "stateMutability": "nonpayable",
      "type": "function"
    },
    {
      "inputs": [],
      "name": "rewardRate",
      "outputs": [
        {
          "internalType": "uint256",
          "name": "",
          "type": "uint256"
        }
      ],
      "stateMutability": "view",
      "type": "function"
    },
    {
      "inputs": [],
      "name": "rewardsWallet",
      "outputs": [
        {
          "internalType": "address",
          "name": "",
          "type": "address"
        }
      ],
      "stateMutability": "view",
      "type": "function"
    },
    {
      "inputs": [
        {
          "internalType": "uint256",
          "name": "newAPR",
          "type": "uint256"
        }
      ],
      "name": "setAPR",
      "outputs": [],
      "stateMutability": "nonpayable",
      "type": "function"
    },
    {
      "inputs": [
        {
          "internalType": "uint256",
          "name": "amount",
          "type": "uint256"
        }
      ],
      "name": "stake",
      "outputs": [],
      "stateMutability": "nonpayable",
      "type": "function"
    },
    {
      "inputs": [
        {
          "internalType": "address",
          "name": "",
          "type": "address"
        }
      ],
      "name": "stakers",
      "outputs": [
        {
          "internalType": "uint256",
          "name": "amount",
          "type": "uint256"
        },
        {
          "internalType": "uint256",
          "name": "rewardDebt",
          "type": "uint256"
        },
        {
          "internalType": "uint256",
          "name": "lastUpdated",
          "type": "uint256"
        }
      ],
      "stateMutability": "view",
      "type": "function"
    },
    {
      "inputs": [],
      "name": "stakingToken",
      "outputs": [
        {
          "internalType": "contract IERC20",
          "name": "",
          "type": "address"
        }
      ],
      "stateMutability": "view",
      "type": "function"
    },
    {
      "inputs": [
        {
          "internalType": "address",
          "name": "user",
          "type": "address"
        }
      ],
      "name": "totalEarnedRewards",
      "outputs": [
        {
          "internalType": "uint256",
          "name": "",
          "type": "uint256"
        }
      ],
      "stateMutability": "view",
      "type": "function"
    },
    {
      "inputs": [],
      "name": "totalStaked",
      "outputs": [
        {
          "internalType": "uint256",
          "name": "",
          "type": "uint256"
        }
      ],
      "stateMutability": "view",
      "type": "function"
    },
    {
      "inputs": [
        {
          "internalType": "address",
          "name": "newOwner",
          "type": "address"
        }
      ],
      "name": "transferOwnership",
      "outputs": [],
      "stateMutability": "nonpayable",
      "type": "function"
    },
    {
      "inputs": [
        {
          "internalType": "uint256",
          "name": "amount",
          "type": "uint256"
        }
      ],
      "name": "unstake",
      "outputs": [],
      "stateMutability": "nonpayable",
      "type": "function"
    }
  ],
  "bytecode": "0x60a0604052606460015560586003553480156200001b57600080fd5b5060405162001bb838038062001bb8833981810160405281019062000041919062000274565b33600073ffffffffffffffffffffffffffffffffffffffff168173ffffffffffffffffffffffffffffffffffffffff1603620000b75760006040517f1e4fbdf7000000000000000000000000000000000000000000000000000000008152600401620000ae9190620002cc565b60405180910390fd5b620000c8816200014660201b60201c565b508173ffffffffffffffffffffffffffffffffffffffff1660808173ffffffffffffffffffffffffffffffffffffffff168152505080600460006101000a81548173ffffffffffffffffffffffffffffffffffffffff021916908373ffffffffffffffffffffffffffffffffffffffff1602179055505050620002e9565b60008060009054906101000a900473ffffffffffffffffffffffffffffffffffffffff169050816000806101000a81548173ffffffffffffffffffffffffffffffffffffffff021916908373ffffffffffffffffffffffffffffffffffffffff1602179055508173ffffffffffffffffffffffffffffffffffffffff168173ffffffffffffffffffffffffffffffffffffffff167f8be0079c531659141344cd1fd0a4f28419497f9722a3daafe3b4186f6b6457e060405160405180910390a35050565b600080fd5b600073ffffffffffffffffffffffffffffffffffffffff82169050919050565b60006200023c826200020f565b9050919050565b6200024e816200022f565b81146200025a57600080fd5b50565b6000815190506200026e8162000243565b92915050565b600080604083850312156200028e576200028d6200020a565b5b60006200029e858286016200025d565b9250506020620002b1858286016200025d565b9150509250929050565b620002c6816200022f565b82525050565b6000602082019050620002e36000830184620002bb565b92915050565b60805161188262000336600039600081816103dd0152818161052c015281816107800152818161091b015281816109fc01528181610ad901528181610c1f0152610e8a01526118826000f3fe608060405234801561001057600080fd5b50600436106101165760003560e01c8063854303cf116100a25780639c1b49cb116100715780639c1b49cb146102ab578063a694fc3a146102db578063bd30558e146102f7578063db2e21bc14610315578063f2fde38b1461031f57610116565b8063854303cf146102235780638da5cb5b1461023f5780639168ae721461025d57806393707a191461028f57610116565b80635b35f9c9116100e95780635b35f9c9146101a1578063715018a6146101bf57806372f702f3146101c95780637b0a47ee146101e7578063817b1cd21461020557610116565b80632e17de781461011b57806331d7a26214610137578063372500ab146101675780634da6a55614610171575b600080fd5b6101356004803603810190610130919061118d565b61033b565b005b610151600480360381019061014c9190611218565b61061c565b60405161015e9190611254565b60405180910390f35b61016f6106d8565b005b61018b60048036038101906101869190611218565b610893565b6040516101989190611254565b60405180910390f35b6101a96108df565b6040516101b6919061127e565b60405180910390f35b6101c7610905565b005b6101d1610919565b6040516101de91906112f8565b60405180910390f35b6101ef61093d565b6040516101fc9190611254565b60405180910390f35b61020d610943565b60405161021a9190611254565b60405180910390f35b61023d6004803603810190610238919061118d565b610949565b005b61024761099e565b604051610254919061127e565b60405180910390f35b61027760048036038101906102729190611218565b6109c7565b60405161028693929190611313565b60405180910390f35b6102a960048036038101906102a4919061118d565b6109f1565b005b6102c560048036038101906102c09190611218565b610b7b565b6040516102d29190611254565b60405180910390f35b6102f560048036038101906102f0919061118d565b610bda565b005b6102ff610db9565b60405161030c9190611254565b60405180910390f35b61031d610dbf565b005b61033960048036038101906103349190611218565b610f79565b005b6000600560003373ffffffffffffffffffffffffffffffffffffffff1673ffffffffffffffffffffffffffffffffffffffff168152602001908152602001600020905081816000015410156103c5576040517f08c379a00000000000000000000000000000000000000000000000000000000081526004016103bc906113a7565b60405180910390fd5b60006103d03361061c565b905060008111156104ed577f000000000000000000000000000000000000000000000000000000000000000073ffffffffffffffffffffffffffffffffffffffff166323b872dd600460009054906101000a900473ffffffffffffffffffffffffffffffffffffffff1633846040518463ffffffff1660e01b815260040161045a939291906113c7565b6020604051808303816000875af1158015610479573d6000803e3d6000fd5b505050506040513d601f19601f8201168201806040525081019061049d9190611436565b503373ffffffffffffffffffffffffffffffffffffffff167ffc30cddea38e2bf4d6ea7d3f9ed3b6ad7f176419f4963bd81318067a4aee73fe826040516104e49190611254565b60405180910390a25b828260000160008282546105019190611492565b9250508190555042826002018190555082600260008282546105239190611492565b925050819055507f000000000000000000000000000000000000000000000000000000000000000073ffffffffffffffffffffffffffffffffffffffff1663a9059cbb33856040518363ffffffff1660e01b81526004016105859291906114c6565b6020604051808303816000875af11580156105a4573d6000803e3d6000fd5b505050506040513d601f19601f820116820180604052508101906105c89190611436565b503373ffffffffffffffffffffffffffffffffffffffff167f0f5bb82176feb1b5e747e28471aa92156a04d9f3ab9f45f28e2d704232b93f758460405161060f9190611254565b60405180910390a2505050565b600080600560008473ffffffffffffffffffffffffffffffffffffffff1673ffffffffffffffffffffffffffffffffffffffff168152602001908152602001600020905060008160000154036106765760009150506106d3565b60008160020154426106889190611492565b90506000606460035484600001546106a091906114ef565b6106aa9190611560565b905060006301e1338083836106bf91906114ef565b6106c99190611560565b9050809450505050505b919050565b6000600560003373ffffffffffffffffffffffffffffffffffffffff1673ffffffffffffffffffffffffffffffffffffffff168152602001908152602001600020905060006107263361061c565b90506000811161076b576040517f08c379a0000000000000000000000000000000000000000000000000000000008152600401610762906115dd565b60405180910390fd5b600082600101819055504282600201819055507f000000000000000000000000000000000000000000000000000000000000000073ffffffffffffffffffffffffffffffffffffffff166323b872dd600460009054906101000a900473ffffffffffffffffffffffffffffffffffffffff1633846040518463ffffffff1660e01b81526004016107fd939291906113c7565b6020604051808303816000875af115801561081c573d6000803e3d6000fd5b505050506040513d601f19601f820116820180604052508101906108409190611436565b503373ffffffffffffffffffffffffffffffffffffffff167ffc30cddea38e2bf4d6ea7d3f9ed3b6ad7f176419f4963bd81318067a4aee73fe826040516108879190611254565b60405180910390a25050565b6000600560008373ffffffffffffffffffffffffffffffffffffffff1673ffffffffffffffffffffffffffffffffffffffff168152602001908152602001600020600001549050919050565b600460009054906101000a900473ffffffffffffffffffffffffffffffffffffffff1681565b61090d610fff565b6109176000611086565b565b7f000000000000000000000000000000000000000000000000000000000000000081565b60015481565b60025481565b610951610fff565b60008111610994576040517f08c379a000000000000000000000000000000000000000000000000000000000815260040161098b90611649565b60405180910390fd5b8060038190555050565b60008060009054906101000a900473ffffffffffffffffffffffffffffffffffffffff16905090565b60056020528060005260406000206000915090508060000154908060010154908060020154905083565b6109f9610fff565b807f000000000000000000000000000000000000000000000000000000000000000073ffffffffffffffffffffffffffffffffffffffff1663dd62ed3e33306040518363ffffffff1660e01b8152600401610a55929190611669565b602060405180830381865afa158015610a72573d6000803e3d6000fd5b505050506040513d601f19601f82011682018060405250810190610a9691906116a7565b1015610ad7576040517f08c379a0000000000000000000000000000000000000000000000000000000008152600401610ace90611720565b60405180910390fd5b7f000000000000000000000000000000000000000000000000000000000000000073ffffffffffffffffffffffffffffffffffffffff166323b872dd3330846040518463ffffffff1660e01b8152600401610b34939291906113c7565b6020604051808303816000875af1158015610b53573d6000803e3d6000fd5b505050506040513d601f19601f82011682018060405250810190610b779190611436565b5050565b6000610b868261061c565b600560008473ffffffffffffffffffffffffffffffffffffffff1673ffffffffffffffffffffffffffffffffffffffff16815260200190815260200160002060010154610bd39190611740565b9050919050565b60008111610c1d576040517f08c379a0000000000000000000000000000000000000000000000000000000008152600401610c14906117c0565b60405180910390fd5b7f000000000000000000000000000000000000000000000000000000000000000073ffffffffffffffffffffffffffffffffffffffff166323b872dd3330846040518463ffffffff1660e01b8152600401610c7a939291906113c7565b6020604051808303816000875af1158015610c99573d6000803e3d6000fd5b505050506040513d601f19601f82011682018060405250810190610cbd9190611436565b506000600560003373ffffffffffffffffffffffffffffffffffffffff1673ffffffffffffffffffffffffffffffffffffffff16815260200190815260200160002090506000610d0c3361061c565b905080826001016000828254610d229190611740565b9250508190555082826000016000828254610d3d9190611740565b925050819055504282600201819055508260026000828254610d5f9190611740565b925050819055503373ffffffffffffffffffffffffffffffffffffffff167f9e71bc8eea02a63969f509818f2dafb9254532904319f9dbda79b67bd34a5f3d84604051610dac9190611254565b60405180910390a2505050565b60035481565b6000600560003373ffffffffffffffffffffffffffffffffffffffff1673ffffffffffffffffffffffffffffffffffffffff16815260200190815260200160002090506000816000015411610e49576040517f08c379a0000000000000000000000000000000000000000000000000000000008152600401610e409061182c565b60405180910390fd5b60008160000154905060008260000181905550600082600101819055504282600201819055508060026000828254610e819190611492565b925050819055507f000000000000000000000000000000000000000000000000000000000000000073ffffffffffffffffffffffffffffffffffffffff1663a9059cbb33836040518363ffffffff1660e01b8152600401610ee39291906114c6565b6020604051808303816000875af1158015610f02573d6000803e3d6000fd5b505050506040513d601f19601f82011682018060405250810190610f269190611436565b503373ffffffffffffffffffffffffffffffffffffffff167f0f5bb82176feb1b5e747e28471aa92156a04d9f3ab9f45f28e2d704232b93f7582604051610f6d9190611254565b60405180910390a25050565b610f81610fff565b600073ffffffffffffffffffffffffffffffffffffffff168173ffffffffffffffffffffffffffffffffffffffff1603610ff35760006040517f1e4fbdf7000000000000000000000000000000000000000000000000000000008152600401610fea919061127e565b60405180910390fd5b610ffc81611086565b50565b61100761114a565b73ffffffffffffffffffffffffffffffffffffffff1661102561099e565b73ffffffffffffffffffffffffffffffffffffffff16146110845761104861114a565b6040517f118cdaa700000000000000000000000000000000000000000000000000000000815260040161107b919061127e565b60405180910390fd5b565b60008060009054906101000a900473ffffffffffffffffffffffffffffffffffffffff169050816000806101000a81548173ffffffffffffffffffffffffffffffffffffffff021916908373ffffffffffffffffffffffffffffffffffffffff1602179055508173ffffffffffffffffffffffffffffffffffffffff168173ffffffffffffffffffffffffffffffffffffffff167f8be0079c531659141344cd1fd0a4f28419497f9722a3daafe3b4186f6b6457e060405160405180910390a35050565b600033905090565b600080fd5b6000819050919050565b61116a81611157565b811461117557600080fd5b50565b60008135905061118781611161565b92915050565b6000602082840312156111a3576111a2611152565b5b60006111b184828501611178565b91505092915050565b600073ffffffffffffffffffffffffffffffffffffffff82169050919050565b60006111e5826111ba565b9050919050565b6111f5816111da565b811461120057600080fd5b50565b600081359050611212816111ec565b92915050565b60006020828403121561122e5761122d611152565b5b600061123c84828501611203565b91505092915050565b61124e81611157565b82525050565b60006020820190506112696000830184611245565b92915050565b611278816111da565b82525050565b6000602082019050611293600083018461126f565b92915050565b6000819050919050565b60006112be6112b96112b4846111ba565b611299565b6111ba565b9050919050565b60006112d0826112a3565b9050919050565b60006112e2826112c5565b9050919050565b6112f2816112d7565b82525050565b600060208201905061130d60008301846112e9565b92915050565b60006060820190506113286000830186611245565b6113356020830185611245565b6113426040830184611245565b949350505050565b600082825260208201905092915050565b7f496e73756666696369656e742062616c616e6365000000000000000000000000600082015250565b600061139160148361134a565b915061139c8261135b565b602082019050919050565b600060208201905081810360008301526113c081611384565b9050919050565b60006060820190506113dc600083018661126f565b6113e9602083018561126f565b6113f66040830184611245565b949350505050565b60008115159050919050565b611413816113fe565b811461141e57600080fd5b50565b6000815190506114308161140a565b92915050565b60006020828403121561144c5761144b611152565b5b600061145a84828501611421565b91505092915050565b7f4e487b7100000000000000000000000000000000000000000000000000000000600052601160045260246000fd5b600061149d82611157565b91506114a883611157565b92508282039050818111156114c0576114bf611463565b5b92915050565b60006040820190506114db600083018561126f565b6114e86020830184611245565b9392505050565b60006114fa82611157565b915061150583611157565b925082820261151381611157565b9150828204841483151761152a57611529611463565b5b5092915050565b7f4e487b7100000000000000000000000000000000000000000000000000000000600052601260045260246000fd5b600061156b82611157565b915061157683611157565b92508261158657611585611531565b5b828204905092915050565b7f4e6f207265776172647320746f20636c61696d00000000000000000000000000600082015250565b60006115c760138361134a565b91506115d282611591565b602082019050919050565b600060208201905081810360008301526115f6816115ba565b9050919050565b7f415052206d75737420626520706f736974697665000000000000000000000000600082015250565b600061163360148361134a565b915061163e826115fd565b602082019050919050565b6000602082019050818103600083015261166281611626565b9050919050565b600060408201905061167e600083018561126f565b61168b602083018461126f565b9392505050565b6000815190506116a181611161565b92915050565b6000602082840312156116bd576116bc611152565b5b60006116cb84828501611692565b91505092915050565b7f496e73756666696369656e7420616c6c6f77616e636500000000000000000000600082015250565b600061170a60168361134a565b9150611715826116d4565b602082019050919050565b60006020820190508181036000830152611739816116fd565b9050919050565b600061174b82611157565b915061175683611157565b925082820190508082111561176e5761176d611463565b5b92915050565b7f43616e6e6f74207374616b652030000000000000000000000000000000000000600082015250565b60006117aa600e8361134a565b91506117b582611774565b602082019050919050565b600060208201905081810360008301526117d98161179d565b9050919050565b7f4e6f7468696e6720746f20776974686472617700000000000000000000000000600082015250565b600061181660138361134a565b9150611821826117e0565b602082019050919050565b6000602082019050818103600083015261184581611809565b905091905056fea2646970667358221220f26b9b2d3e7463f4b61c7bcedfcab4c8a965c88b844afc7257ac2edc31beb55864736f6c63430008140033",
  "linkReferences": {},
  "deployedLinkReferences": {}
}